{
	"contracts/PriceConverter.sol": {
		"PriceConverter": {
			"abi": [
				{
					"inputs": [
						{
							"internalType": "uint256",
							"name": "_amount",
							"type": "uint256"
						}
					],
					"name": "getConversionRate",
					"outputs": [
						{
							"internalType": "uint256",
							"name": "",
							"type": "uint256"
						}
					],
					"stateMutability": "view",
					"type": "function"
				},
				{
					"inputs": [],
					"name": "getPrice",
					"outputs": [
						{
							"internalType": "uint256",
							"name": "",
							"type": "uint256"
						}
					],
					"stateMutability": "view",
					"type": "function"
				},
				{
					"inputs": [],
					"name": "getVersionNDecimals",
					"outputs": [
						{
							"internalType": "uint256",
							"name": "",
							"type": "uint256"
						},
						{
							"internalType": "uint8",
							"name": "",
							"type": "uint8"
						}
					],
					"stateMutability": "view",
					"type": "function"
				}
			],
			"devdoc": {
				"kind": "dev",
				"methods": {},
				"version": 1
			},
			"evm": {
				"assembly": "    /* \"contracts/PriceConverter.sol\":171:1050  library PriceConverter{... */\n  dataSize(sub_0)\n  dataOffset(sub_0)\n  0x0b\n  dup3\n  dup3\n  dup3\n  codecopy\n  dup1\n  mload\n  0x00\n  byte\n  0x73\n  eq\n  tag_1\n  jumpi\n  mstore(0x00, 0x4e487b7100000000000000000000000000000000000000000000000000000000)\n  mstore(0x04, 0x00)\n  revert(0x00, 0x24)\ntag_1:\n  mstore(0x00, address)\n  0x73\n  dup2\n  mstore8\n  dup3\n  dup2\n  return\nstop\n\nsub_0: assembly {\n        /* \"contracts/PriceConverter.sol\":171:1050  library PriceConverter{... */\n      eq(address, deployTimeAddress())\n      mstore(0x40, 0x80)\n      jumpi(tag_1, lt(calldatasize, 0x04))\n      shr(0xe0, calldataload(0x00))\n      dup1\n      0x0eae8d57\n      eq\n      tag_2\n      jumpi\n      dup1\n      0x6e5b6b28\n      eq\n      tag_3\n      jumpi\n      dup1\n      0x98d5fdca\n      eq\n      tag_4\n      jumpi\n    tag_1:\n      0x00\n      dup1\n      revert\n        /* \"contracts/PriceConverter.sol\":823:1048  function getVersionNDecimals() public view returns(uint256, uint8) {... */\n    tag_2:\n      tag_5\n      tag_6\n      jump\t// in\n    tag_5:\n      mload(0x40)\n      tag_7\n      swap3\n      swap2\n      swap1\n      tag_8\n      jump\t// in\n    tag_7:\n      mload(0x40)\n      dup1\n      swap2\n      sub\n      swap1\n      return\n        /* \"contracts/PriceConverter.sol\":617:817  function getConversionRate(uint256 _amount) public view returns(uint256) {... */\n    tag_3:\n      tag_9\n      0x04\n      dup1\n      calldatasize\n      sub\n      dup2\n      add\n      swap1\n      tag_10\n      swap2\n      swap1\n      tag_11\n      jump\t// in\n    tag_10:\n      tag_12\n      jump\t// in\n    tag_9:\n      mload(0x40)\n      tag_13\n      swap2\n      swap1\n      tag_14\n      jump\t// in\n    tag_13:\n      mload(0x40)\n      dup1\n      swap2\n      sub\n      swap1\n      return\n        /* \"contracts/PriceConverter.sol\":200:611  function getPrice() public view returns(uint256) {... */\n    tag_4:\n      tag_15\n      tag_16\n      jump\t// in\n    tag_15:\n      mload(0x40)\n      tag_17\n      swap2\n      swap1\n      tag_14\n      jump\t// in\n    tag_17:\n      mload(0x40)\n      dup1\n      swap2\n      sub\n      swap1\n      return\n        /* \"contracts/PriceConverter.sol\":823:1048  function getVersionNDecimals() public view returns(uint256, uint8) {... */\n    tag_6:\n        /* \"contracts/PriceConverter.sol\":874:881  uint256 */\n      0x00\n        /* \"contracts/PriceConverter.sol\":883:888  uint8 */\n      dup1\n        /* \"contracts/PriceConverter.sol\":900:925  AggregatorV3Interface obj */\n      0x00\n        /* \"contracts/PriceConverter.sol\":950:992  0x694AA1769357215DE4FAC081bf1f309aDC325306 */\n      0x694aa1769357215de4fac081bf1f309adc325306\n        /* \"contracts/PriceConverter.sol\":900:993  AggregatorV3Interface obj = AggregatorV3Interface(0x694AA1769357215DE4FAC081bf1f309aDC325306) */\n      swap1\n      pop\n        /* \"contracts/PriceConverter.sol\":1011:1014  obj */\n      dup1\n        /* \"contracts/PriceConverter.sol\":1011:1022  obj.version */\n      0xffffffffffffffffffffffffffffffffffffffff\n      and\n      0x54fd4d50\n        /* \"contracts/PriceConverter.sol\":1011:1024  obj.version() */\n      mload(0x40)\n      dup2\n      0xffffffff\n      and\n      0xe0\n      shl\n      dup2\n      mstore\n      0x04\n      add\n      0x20\n      mload(0x40)\n      dup1\n      dup4\n      sub\n      dup2\n      dup7\n      gas\n      staticcall\n      iszero\n      dup1\n      iszero\n      tag_20\n      jumpi\n      returndatasize\n      0x00\n      dup1\n      returndatacopy\n      revert(0x00, returndatasize)\n    tag_20:\n      pop\n      pop\n      pop\n      pop\n      mload(0x40)\n      returndatasize\n      not(0x1f)\n      0x1f\n      dup3\n      add\n      and\n      dup3\n      add\n      dup1\n      0x40\n      mstore\n      pop\n      dup2\n      add\n      swap1\n      tag_21\n      swap2\n      swap1\n      tag_22\n      jump\t// in\n    tag_21:\n        /* \"contracts/PriceConverter.sol\":1026:1029  obj */\n      dup2\n        /* \"contracts/PriceConverter.sol\":1026:1038  obj.decimals */\n      0xffffffffffffffffffffffffffffffffffffffff\n      and\n      0x313ce567\n        /* \"contracts/PriceConverter.sol\":1026:1040  obj.decimals() */\n      mload(0x40)\n      dup2\n      0xffffffff\n      and\n      0xe0\n      shl\n      dup2\n      mstore\n      0x04\n      add\n      0x20\n      mload(0x40)\n      dup1\n      dup4\n      sub\n      dup2\n      dup7\n      gas\n      staticcall\n      iszero\n      dup1\n      iszero\n      tag_24\n      jumpi\n      returndatasize\n      0x00\n      dup1\n      returndatacopy\n      revert(0x00, returndatasize)\n    tag_24:\n      pop\n      pop\n      pop\n      pop\n      mload(0x40)\n      returndatasize\n      not(0x1f)\n      0x1f\n      dup3\n      add\n      and\n      dup3\n      add\n      dup1\n      0x40\n      mstore\n      pop\n      dup2\n      add\n      swap1\n      tag_25\n      swap2\n      swap1\n      tag_26\n      jump\t// in\n    tag_25:\n        /* \"contracts/PriceConverter.sol\":1003:1041  return (obj.version(), obj.decimals()) */\n      swap3\n      pop\n      swap3\n      pop\n      pop\n        /* \"contracts/PriceConverter.sol\":823:1048  function getVersionNDecimals() public view returns(uint256, uint8) {... */\n      swap1\n      swap2\n      jump\t// out\n        /* \"contracts/PriceConverter.sol\":617:817  function getConversionRate(uint256 _amount) public view returns(uint256) {... */\n    tag_12:\n        /* \"contracts/PriceConverter.sol\":681:688  uint256 */\n      0x00\n        /* \"contracts/PriceConverter.sol\":700:716  uint256 ethPrice */\n      dup1\n        /* \"contracts/PriceConverter.sol\":719:729  getPrice() */\n      tag_28\n        /* \"contracts/PriceConverter.sol\":719:727  getPrice */\n      tag_16\n        /* \"contracts/PriceConverter.sol\":719:729  getPrice() */\n      jump\t// in\n    tag_28:\n        /* \"contracts/PriceConverter.sol\":700:729  uint256 ethPrice = getPrice() */\n      swap1\n      pop\n        /* \"contracts/PriceConverter.sol\":739:755  uint256 ethToUsd */\n      0x00\n        /* \"contracts/PriceConverter.sol\":781:785  1e18 */\n      0x0de0b6b3a7640000\n        /* \"contracts/PriceConverter.sol\":769:777  ethPrice */\n      dup3\n        /* \"contracts/PriceConverter.sol\":759:766  _amount */\n      dup6\n        /* \"contracts/PriceConverter.sol\":759:777  _amount * ethPrice */\n      tag_29\n      swap2\n      swap1\n      tag_30\n      jump\t// in\n    tag_29:\n        /* \"contracts/PriceConverter.sol\":758:785  (_amount * ethPrice) / 1e18 */\n      tag_31\n      swap2\n      swap1\n      tag_32\n      jump\t// in\n    tag_31:\n        /* \"contracts/PriceConverter.sol\":739:785  uint256 ethToUsd = (_amount * ethPrice) / 1e18 */\n      swap1\n      pop\n        /* \"contracts/PriceConverter.sol\":802:810  ethToUsd */\n      dup1\n        /* \"contracts/PriceConverter.sol\":795:810  return ethToUsd */\n      swap3\n      pop\n      pop\n      pop\n        /* \"contracts/PriceConverter.sol\":617:817  function getConversionRate(uint256 _amount) public view returns(uint256) {... */\n      swap2\n      swap1\n      pop\n      jump\t// out\n        /* \"contracts/PriceConverter.sol\":200:611  function getPrice() public view returns(uint256) {... */\n    tag_16:\n        /* \"contracts/PriceConverter.sol\":240:247  uint256 */\n      0x00\n        /* \"contracts/PriceConverter.sol\":406:437  AggregatorV3Interface priceFeed */\n      dup1\n        /* \"contracts/PriceConverter.sol\":462:504  0x694AA1769357215DE4FAC081bf1f309aDC325306 */\n      0x694aa1769357215de4fac081bf1f309adc325306\n        /* \"contracts/PriceConverter.sol\":406:505  AggregatorV3Interface priceFeed = AggregatorV3Interface(0x694AA1769357215DE4FAC081bf1f309aDC325306) */\n      swap1\n      pop\n        /* \"contracts/PriceConverter.sol\":517:529  int256 price */\n      0x00\n        /* \"contracts/PriceConverter.sol\":539:548  priceFeed */\n      dup2\n        /* \"contracts/PriceConverter.sol\":539:564  priceFeed.latestRoundData */\n      0xffffffffffffffffffffffffffffffffffffffff\n      and\n      0xfeaf968c\n        /* \"contracts/PriceConverter.sol\":539:566  priceFeed.latestRoundData() */\n      mload(0x40)\n      dup2\n      0xffffffff\n      and\n      0xe0\n      shl\n      dup2\n      mstore\n      0x04\n      add\n      0xa0\n      mload(0x40)\n      dup1\n      dup4\n      sub\n      dup2\n      dup7\n      gas\n      staticcall\n      iszero\n      dup1\n      iszero\n      tag_35\n      jumpi\n      returndatasize\n      0x00\n      dup1\n      returndatacopy\n      revert(0x00, returndatasize)\n    tag_35:\n      pop\n      pop\n      pop\n      pop\n      mload(0x40)\n      returndatasize\n      not(0x1f)\n      0x1f\n      dup3\n      add\n      and\n      dup3\n      add\n      dup1\n      0x40\n      mstore\n      pop\n      dup2\n      add\n      swap1\n      tag_36\n      swap2\n      swap1\n      tag_37\n      jump\t// in\n    tag_36:\n        /* \"contracts/PriceConverter.sol\":515:566  (,int256 price, , , ) = priceFeed.latestRoundData() */\n      pop\n      pop\n      pop\n      swap2\n      pop\n      pop\n        /* \"contracts/PriceConverter.sol\":599:603  1e10 */\n      0x02540be400\n        /* \"contracts/PriceConverter.sol\":591:596  price */\n      dup2\n        /* \"contracts/PriceConverter.sol\":591:603  price * 1e10 */\n      tag_38\n      swap2\n      swap1\n      tag_39\n      jump\t// in\n    tag_38:\n        /* \"contracts/PriceConverter.sol\":576:604  return uint256(price * 1e10) */\n      swap3\n      pop\n      pop\n      pop\n        /* \"contracts/PriceConverter.sol\":200:611  function getPrice() public view returns(uint256) {... */\n      swap1\n      jump\t// out\n        /* \"#utility.yul\":7:84   */\n    tag_40:\n        /* \"#utility.yul\":44:51   */\n      0x00\n        /* \"#utility.yul\":73:78   */\n      dup2\n        /* \"#utility.yul\":62:78   */\n      swap1\n      pop\n        /* \"#utility.yul\":7:84   */\n      swap2\n      swap1\n      pop\n      jump\t// out\n        /* \"#utility.yul\":90:216   */\n    tag_41:\n        /* \"#utility.yul\":185:209   */\n      tag_63\n        /* \"#utility.yul\":203:208   */\n      dup2\n        /* \"#utility.yul\":185:209   */\n      tag_40\n      jump\t// in\n    tag_63:\n        /* \"#utility.yul\":180:183   */\n      dup3\n        /* \"#utility.yul\":173:210   */\n      mstore\n        /* \"#utility.yul\":90:216   */\n      pop\n      pop\n      jump\t// out\n        /* \"#utility.yul\":222:308   */\n    tag_42:\n        /* \"#utility.yul\":257:264   */\n      0x00\n        /* \"#utility.yul\":297:301   */\n      0xff\n        /* \"#utility.yul\":290:295   */\n      dup3\n        /* \"#utility.yul\":286:302   */\n      and\n        /* \"#utility.yul\":275:302   */\n      swap1\n      pop\n        /* \"#utility.yul\":222:308   */\n      swap2\n      swap1\n      pop\n      jump\t// out\n        /* \"#utility.yul\":314:434   */\n    tag_43:\n        /* \"#utility.yul\":405:427   */\n      tag_66\n        /* \"#utility.yul\":421:426   */\n      dup2\n        /* \"#utility.yul\":405:427   */\n      tag_42\n      jump\t// in\n    tag_66:\n        /* \"#utility.yul\":400:403   */\n      dup3\n        /* \"#utility.yul\":393:428   */\n      mstore\n        /* \"#utility.yul\":314:434   */\n      pop\n      pop\n      jump\t// out\n        /* \"#utility.yul\":440:788   */\n    tag_8:\n        /* \"#utility.yul\":565:569   */\n      0x00\n        /* \"#utility.yul\":603:605   */\n      0x40\n        /* \"#utility.yul\":592:601   */\n      dup3\n        /* \"#utility.yul\":588:606   */\n      add\n        /* \"#utility.yul\":580:606   */\n      swap1\n      pop\n        /* \"#utility.yul\":616:695   */\n      tag_68\n        /* \"#utility.yul\":692:693   */\n      0x00\n        /* \"#utility.yul\":681:690   */\n      dup4\n        /* \"#utility.yul\":677:694   */\n      add\n        /* \"#utility.yul\":668:674   */\n      dup6\n        /* \"#utility.yul\":616:695   */\n      tag_41\n      jump\t// in\n    tag_68:\n        /* \"#utility.yul\":705:781   */\n      tag_69\n        /* \"#utility.yul\":777:779   */\n      0x20\n        /* \"#utility.yul\":766:775   */\n      dup4\n        /* \"#utility.yul\":762:780   */\n      add\n        /* \"#utility.yul\":753:759   */\n      dup5\n        /* \"#utility.yul\":705:781   */\n      tag_43\n      jump\t// in\n    tag_69:\n        /* \"#utility.yul\":440:788   */\n      swap4\n      swap3\n      pop\n      pop\n      pop\n      jump\t// out\n        /* \"#utility.yul\":875:992   */\n    tag_45:\n        /* \"#utility.yul\":984:985   */\n      0x00\n        /* \"#utility.yul\":981:982   */\n      dup1\n        /* \"#utility.yul\":974:986   */\n      revert\n        /* \"#utility.yul\":1121:1243   */\n    tag_47:\n        /* \"#utility.yul\":1194:1218   */\n      tag_74\n        /* \"#utility.yul\":1212:1217   */\n      dup2\n        /* \"#utility.yul\":1194:1218   */\n      tag_40\n      jump\t// in\n    tag_74:\n        /* \"#utility.yul\":1187:1192   */\n      dup2\n        /* \"#utility.yul\":1184:1219   */\n      eq\n        /* \"#utility.yul\":1174:1237   */\n      tag_75\n      jumpi\n        /* \"#utility.yul\":1233:1234   */\n      0x00\n        /* \"#utility.yul\":1230:1231   */\n      dup1\n        /* \"#utility.yul\":1223:1235   */\n      revert\n        /* \"#utility.yul\":1174:1237   */\n    tag_75:\n        /* \"#utility.yul\":1121:1243   */\n      pop\n      jump\t// out\n        /* \"#utility.yul\":1249:1388   */\n    tag_48:\n        /* \"#utility.yul\":1295:1300   */\n      0x00\n        /* \"#utility.yul\":1333:1339   */\n      dup2\n        /* \"#utility.yul\":1320:1340   */\n      calldataload\n        /* \"#utility.yul\":1311:1340   */\n      swap1\n      pop\n        /* \"#utility.yul\":1349:1382   */\n      tag_77\n        /* \"#utility.yul\":1376:1381   */\n      dup2\n        /* \"#utility.yul\":1349:1382   */\n      tag_47\n      jump\t// in\n    tag_77:\n        /* \"#utility.yul\":1249:1388   */\n      swap3\n      swap2\n      pop\n      pop\n      jump\t// out\n        /* \"#utility.yul\":1394:1723   */\n    tag_11:\n        /* \"#utility.yul\":1453:1459   */\n      0x00\n        /* \"#utility.yul\":1502:1504   */\n      0x20\n        /* \"#utility.yul\":1490:1499   */\n      dup3\n        /* \"#utility.yul\":1481:1488   */\n      dup5\n        /* \"#utility.yul\":1477:1500   */\n      sub\n        /* \"#utility.yul\":1473:1505   */\n      slt\n        /* \"#utility.yul\":1470:1589   */\n      iszero\n      tag_79\n      jumpi\n        /* \"#utility.yul\":1508:1587   */\n      tag_80\n      tag_45\n      jump\t// in\n    tag_80:\n        /* \"#utility.yul\":1470:1589   */\n    tag_79:\n        /* \"#utility.yul\":1628:1629   */\n      0x00\n        /* \"#utility.yul\":1653:1706   */\n      tag_81\n        /* \"#utility.yul\":1698:1705   */\n      dup5\n        /* \"#utility.yul\":1689:1695   */\n      dup3\n        /* \"#utility.yul\":1678:1687   */\n      dup6\n        /* \"#utility.yul\":1674:1696   */\n      add\n        /* \"#utility.yul\":1653:1706   */\n      tag_48\n      jump\t// in\n    tag_81:\n        /* \"#utility.yul\":1643:1706   */\n      swap2\n      pop\n        /* \"#utility.yul\":1599:1716   */\n      pop\n        /* \"#utility.yul\":1394:1723   */\n      swap3\n      swap2\n      pop\n      pop\n      jump\t// out\n        /* \"#utility.yul\":1729:1967   */\n    tag_14:\n        /* \"#utility.yul\":1830:1834   */\n      0x00\n        /* \"#utility.yul\":1868:1870   */\n      0x20\n        /* \"#utility.yul\":1857:1866   */\n      dup3\n        /* \"#utility.yul\":1853:1871   */\n      add\n        /* \"#utility.yul\":1845:1871   */\n      swap1\n      pop\n        /* \"#utility.yul\":1881:1960   */\n      tag_83\n        /* \"#utility.yul\":1957:1958   */\n      0x00\n        /* \"#utility.yul\":1946:1955   */\n      dup4\n        /* \"#utility.yul\":1942:1959   */\n      add\n        /* \"#utility.yul\":1933:1939   */\n      dup5\n        /* \"#utility.yul\":1881:1960   */\n      tag_41\n      jump\t// in\n    tag_83:\n        /* \"#utility.yul\":1729:1967   */\n      swap3\n      swap2\n      pop\n      pop\n      jump\t// out\n        /* \"#utility.yul\":1973:2116   */\n    tag_49:\n        /* \"#utility.yul\":2030:2035   */\n      0x00\n        /* \"#utility.yul\":2061:2067   */\n      dup2\n        /* \"#utility.yul\":2055:2068   */\n      mload\n        /* \"#utility.yul\":2046:2068   */\n      swap1\n      pop\n        /* \"#utility.yul\":2077:2110   */\n      tag_85\n        /* \"#utility.yul\":2104:2109   */\n      dup2\n        /* \"#utility.yul\":2077:2110   */\n      tag_47\n      jump\t// in\n    tag_85:\n        /* \"#utility.yul\":1973:2116   */\n      swap3\n      swap2\n      pop\n      pop\n      jump\t// out\n        /* \"#utility.yul\":2122:2473   */\n    tag_22:\n        /* \"#utility.yul\":2192:2198   */\n      0x00\n        /* \"#utility.yul\":2241:2243   */\n      0x20\n        /* \"#utility.yul\":2229:2238   */\n      dup3\n        /* \"#utility.yul\":2220:2227   */\n      dup5\n        /* \"#utility.yul\":2216:2239   */\n      sub\n        /* \"#utility.yul\":2212:2244   */\n      slt\n        /* \"#utility.yul\":2209:2328   */\n      iszero\n      tag_87\n      jumpi\n        /* \"#utility.yul\":2247:2326   */\n      tag_88\n      tag_45\n      jump\t// in\n    tag_88:\n        /* \"#utility.yul\":2209:2328   */\n    tag_87:\n        /* \"#utility.yul\":2367:2368   */\n      0x00\n        /* \"#utility.yul\":2392:2456   */\n      tag_89\n        /* \"#utility.yul\":2448:2455   */\n      dup5\n        /* \"#utility.yul\":2439:2445   */\n      dup3\n        /* \"#utility.yul\":2428:2437   */\n      dup6\n        /* \"#utility.yul\":2424:2446   */\n      add\n        /* \"#utility.yul\":2392:2456   */\n      tag_49\n      jump\t// in\n    tag_89:\n        /* \"#utility.yul\":2382:2456   */\n      swap2\n      pop\n        /* \"#utility.yul\":2338:2466   */\n      pop\n        /* \"#utility.yul\":2122:2473   */\n      swap3\n      swap2\n      pop\n      pop\n      jump\t// out\n        /* \"#utility.yul\":2479:2597   */\n    tag_50:\n        /* \"#utility.yul\":2550:2572   */\n      tag_91\n        /* \"#utility.yul\":2566:2571   */\n      dup2\n        /* \"#utility.yul\":2550:2572   */\n      tag_42\n      jump\t// in\n    tag_91:\n        /* \"#utility.yul\":2543:2548   */\n      dup2\n        /* \"#utility.yul\":2540:2573   */\n      eq\n        /* \"#utility.yul\":2530:2591   */\n      tag_92\n      jumpi\n        /* \"#utility.yul\":2587:2588   */\n      0x00\n        /* \"#utility.yul\":2584:2585   */\n      dup1\n        /* \"#utility.yul\":2577:2589   */\n      revert\n        /* \"#utility.yul\":2530:2591   */\n    tag_92:\n        /* \"#utility.yul\":2479:2597   */\n      pop\n      jump\t// out\n        /* \"#utility.yul\":2603:2742   */\n    tag_51:\n        /* \"#utility.yul\":2658:2663   */\n      0x00\n        /* \"#utility.yul\":2689:2695   */\n      dup2\n        /* \"#utility.yul\":2683:2696   */\n      mload\n        /* \"#utility.yul\":2674:2696   */\n      swap1\n      pop\n        /* \"#utility.yul\":2705:2736   */\n      tag_94\n        /* \"#utility.yul\":2730:2735   */\n      dup2\n        /* \"#utility.yul\":2705:2736   */\n      tag_50\n      jump\t// in\n    tag_94:\n        /* \"#utility.yul\":2603:2742   */\n      swap3\n      swap2\n      pop\n      pop\n      jump\t// out\n        /* \"#utility.yul\":2748:3095   */\n    tag_26:\n        /* \"#utility.yul\":2816:2822   */\n      0x00\n        /* \"#utility.yul\":2865:2867   */\n      0x20\n        /* \"#utility.yul\":2853:2862   */\n      dup3\n        /* \"#utility.yul\":2844:2851   */\n      dup5\n        /* \"#utility.yul\":2840:2863   */\n      sub\n        /* \"#utility.yul\":2836:2868   */\n      slt\n        /* \"#utility.yul\":2833:2952   */\n      iszero\n      tag_96\n      jumpi\n        /* \"#utility.yul\":2871:2950   */\n      tag_97\n      tag_45\n      jump\t// in\n    tag_97:\n        /* \"#utility.yul\":2833:2952   */\n    tag_96:\n        /* \"#utility.yul\":2991:2992   */\n      0x00\n        /* \"#utility.yul\":3016:3078   */\n      tag_98\n        /* \"#utility.yul\":3070:3077   */\n      dup5\n        /* \"#utility.yul\":3061:3067   */\n      dup3\n        /* \"#utility.yul\":3050:3059   */\n      dup6\n        /* \"#utility.yul\":3046:3068   */\n      add\n        /* \"#utility.yul\":3016:3078   */\n      tag_51\n      jump\t// in\n    tag_98:\n        /* \"#utility.yul\":3006:3078   */\n      swap2\n      pop\n        /* \"#utility.yul\":2962:3088   */\n      pop\n        /* \"#utility.yul\":2748:3095   */\n      swap3\n      swap2\n      pop\n      pop\n      jump\t// out\n        /* \"#utility.yul\":3101:3281   */\n    tag_52:\n        /* \"#utility.yul\":3149:3226   */\n      0x4e487b7100000000000000000000000000000000000000000000000000000000\n        /* \"#utility.yul\":3146:3147   */\n      0x00\n        /* \"#utility.yul\":3139:3227   */\n      mstore\n        /* \"#utility.yul\":3246:3250   */\n      0x11\n        /* \"#utility.yul\":3243:3244   */\n      0x04\n        /* \"#utility.yul\":3236:3251   */\n      mstore\n        /* \"#utility.yul\":3270:3274   */\n      0x24\n        /* \"#utility.yul\":3267:3268   */\n      0x00\n        /* \"#utility.yul\":3260:3275   */\n      revert\n        /* \"#utility.yul\":3287:3697   */\n    tag_30:\n        /* \"#utility.yul\":3327:3334   */\n      0x00\n        /* \"#utility.yul\":3350:3370   */\n      tag_101\n        /* \"#utility.yul\":3368:3369   */\n      dup3\n        /* \"#utility.yul\":3350:3370   */\n      tag_40\n      jump\t// in\n    tag_101:\n        /* \"#utility.yul\":3345:3370   */\n      swap2\n      pop\n        /* \"#utility.yul\":3384:3404   */\n      tag_102\n        /* \"#utility.yul\":3402:3403   */\n      dup4\n        /* \"#utility.yul\":3384:3404   */\n      tag_40\n      jump\t// in\n    tag_102:\n        /* \"#utility.yul\":3379:3404   */\n      swap3\n      pop\n        /* \"#utility.yul\":3439:3440   */\n      dup3\n        /* \"#utility.yul\":3436:3437   */\n      dup3\n        /* \"#utility.yul\":3432:3441   */\n      mul\n        /* \"#utility.yul\":3461:3491   */\n      tag_103\n        /* \"#utility.yul\":3479:3490   */\n      dup2\n        /* \"#utility.yul\":3461:3491   */\n      tag_40\n      jump\t// in\n    tag_103:\n        /* \"#utility.yul\":3450:3491   */\n      swap2\n      pop\n        /* \"#utility.yul\":3640:3641   */\n      dup3\n        /* \"#utility.yul\":3631:3638   */\n      dup3\n        /* \"#utility.yul\":3627:3642   */\n      div\n        /* \"#utility.yul\":3624:3625   */\n      dup5\n        /* \"#utility.yul\":3621:3643   */\n      eq\n        /* \"#utility.yul\":3601:3602   */\n      dup4\n        /* \"#utility.yul\":3594:3603   */\n      iszero\n        /* \"#utility.yul\":3574:3657   */\n      or\n        /* \"#utility.yul\":3551:3690   */\n      tag_104\n      jumpi\n        /* \"#utility.yul\":3670:3688   */\n      tag_105\n      tag_52\n      jump\t// in\n    tag_105:\n        /* \"#utility.yul\":3551:3690   */\n    tag_104:\n        /* \"#utility.yul\":3335:3697   */\n      pop\n        /* \"#utility.yul\":3287:3697   */\n      swap3\n      swap2\n      pop\n      pop\n      jump\t// out\n        /* \"#utility.yul\":3703:3883   */\n    tag_53:\n        /* \"#utility.yul\":3751:3828   */\n      0x4e487b7100000000000000000000000000000000000000000000000000000000\n        /* \"#utility.yul\":3748:3749   */\n      0x00\n        /* \"#utility.yul\":3741:3829   */\n      mstore\n        /* \"#utility.yul\":3848:3852   */\n      0x12\n        /* \"#utility.yul\":3845:3846   */\n      0x04\n        /* \"#utility.yul\":3838:3853   */\n      mstore\n        /* \"#utility.yul\":3872:3876   */\n      0x24\n        /* \"#utility.yul\":3869:3870   */\n      0x00\n        /* \"#utility.yul\":3862:3877   */\n      revert\n        /* \"#utility.yul\":3889:4074   */\n    tag_32:\n        /* \"#utility.yul\":3929:3930   */\n      0x00\n        /* \"#utility.yul\":3946:3966   */\n      tag_108\n        /* \"#utility.yul\":3964:3965   */\n      dup3\n        /* \"#utility.yul\":3946:3966   */\n      tag_40\n      jump\t// in\n    tag_108:\n        /* \"#utility.yul\":3941:3966   */\n      swap2\n      pop\n        /* \"#utility.yul\":3980:4000   */\n      tag_109\n        /* \"#utility.yul\":3998:3999   */\n      dup4\n        /* \"#utility.yul\":3980:4000   */\n      tag_40\n      jump\t// in\n    tag_109:\n        /* \"#utility.yul\":3975:4000   */\n      swap3\n      pop\n        /* \"#utility.yul\":4019:4020   */\n      dup3\n        /* \"#utility.yul\":4009:4044   */\n      tag_110\n      jumpi\n        /* \"#utility.yul\":4024:4042   */\n      tag_111\n      tag_53\n      jump\t// in\n    tag_111:\n        /* \"#utility.yul\":4009:4044   */\n    tag_110:\n        /* \"#utility.yul\":4066:4067   */\n      dup3\n        /* \"#utility.yul\":4063:4064   */\n      dup3\n        /* \"#utility.yul\":4059:4068   */\n      div\n        /* \"#utility.yul\":4054:4068   */\n      swap1\n      pop\n        /* \"#utility.yul\":3889:4074   */\n      swap3\n      swap2\n      pop\n      pop\n      jump\t// out\n        /* \"#utility.yul\":4080:4185   */\n    tag_54:\n        /* \"#utility.yul\":4116:4123   */\n      0x00\n        /* \"#utility.yul\":4156:4178   */\n      0xffffffffffffffffffff\n        /* \"#utility.yul\":4149:4154   */\n      dup3\n        /* \"#utility.yul\":4145:4179   */\n      and\n        /* \"#utility.yul\":4134:4179   */\n      swap1\n      pop\n        /* \"#utility.yul\":4080:4185   */\n      swap2\n      swap1\n      pop\n      jump\t// out\n        /* \"#utility.yul\":4191:4311   */\n    tag_55:\n        /* \"#utility.yul\":4263:4286   */\n      tag_114\n        /* \"#utility.yul\":4280:4285   */\n      dup2\n        /* \"#utility.yul\":4263:4286   */\n      tag_54\n      jump\t// in\n    tag_114:\n        /* \"#utility.yul\":4256:4261   */\n      dup2\n        /* \"#utility.yul\":4253:4287   */\n      eq\n        /* \"#utility.yul\":4243:4305   */\n      tag_115\n      jumpi\n        /* \"#utility.yul\":4301:4302   */\n      0x00\n        /* \"#utility.yul\":4298:4299   */\n      dup1\n        /* \"#utility.yul\":4291:4303   */\n      revert\n        /* \"#utility.yul\":4243:4305   */\n    tag_115:\n        /* \"#utility.yul\":4191:4311   */\n      pop\n      jump\t// out\n        /* \"#utility.yul\":4317:4458   */\n    tag_56:\n        /* \"#utility.yul\":4373:4378   */\n      0x00\n        /* \"#utility.yul\":4404:4410   */\n      dup2\n        /* \"#utility.yul\":4398:4411   */\n      mload\n        /* \"#utility.yul\":4389:4411   */\n      swap1\n      pop\n        /* \"#utility.yul\":4420:4452   */\n      tag_117\n        /* \"#utility.yul\":4446:4451   */\n      dup2\n        /* \"#utility.yul\":4420:4452   */\n      tag_55\n      jump\t// in\n    tag_117:\n        /* \"#utility.yul\":4317:4458   */\n      swap3\n      swap2\n      pop\n      pop\n      jump\t// out\n        /* \"#utility.yul\":4464:4540   */\n    tag_57:\n        /* \"#utility.yul\":4500:4507   */\n      0x00\n        /* \"#utility.yul\":4529:4534   */\n      dup2\n        /* \"#utility.yul\":4518:4534   */\n      swap1\n      pop\n        /* \"#utility.yul\":4464:4540   */\n      swap2\n      swap1\n      pop\n      jump\t// out\n        /* \"#utility.yul\":4546:4666   */\n    tag_58:\n        /* \"#utility.yul\":4618:4641   */\n      tag_120\n        /* \"#utility.yul\":4635:4640   */\n      dup2\n        /* \"#utility.yul\":4618:4641   */\n      tag_57\n      jump\t// in\n    tag_120:\n        /* \"#utility.yul\":4611:4616   */\n      dup2\n        /* \"#utility.yul\":4608:4642   */\n      eq\n        /* \"#utility.yul\":4598:4660   */\n      tag_121\n      jumpi\n        /* \"#utility.yul\":4656:4657   */\n      0x00\n        /* \"#utility.yul\":4653:4654   */\n      dup1\n        /* \"#utility.yul\":4646:4658   */\n      revert\n        /* \"#utility.yul\":4598:4660   */\n    tag_121:\n        /* \"#utility.yul\":4546:4666   */\n      pop\n      jump\t// out\n        /* \"#utility.yul\":4672:4813   */\n    tag_59:\n        /* \"#utility.yul\":4728:4733   */\n      0x00\n        /* \"#utility.yul\":4759:4765   */\n      dup2\n        /* \"#utility.yul\":4753:4766   */\n      mload\n        /* \"#utility.yul\":4744:4766   */\n      swap1\n      pop\n        /* \"#utility.yul\":4775:4807   */\n      tag_123\n        /* \"#utility.yul\":4801:4806   */\n      dup2\n        /* \"#utility.yul\":4775:4807   */\n      tag_58\n      jump\t// in\n    tag_123:\n        /* \"#utility.yul\":4672:4813   */\n      swap3\n      swap2\n      pop\n      pop\n      jump\t// out\n        /* \"#utility.yul\":4819:5790   */\n    tag_37:\n        /* \"#utility.yul\":4922:4928   */\n      0x00\n        /* \"#utility.yul\":4930:4936   */\n      dup1\n        /* \"#utility.yul\":4938:4944   */\n      0x00\n        /* \"#utility.yul\":4946:4952   */\n      dup1\n        /* \"#utility.yul\":4954:4960   */\n      0x00\n        /* \"#utility.yul\":5003:5006   */\n      0xa0\n        /* \"#utility.yul\":4991:5000   */\n      dup7\n        /* \"#utility.yul\":4982:4989   */\n      dup9\n        /* \"#utility.yul\":4978:5001   */\n      sub\n        /* \"#utility.yul\":4974:5007   */\n      slt\n        /* \"#utility.yul\":4971:5091   */\n      iszero\n      tag_125\n      jumpi\n        /* \"#utility.yul\":5010:5089   */\n      tag_126\n      tag_45\n      jump\t// in\n    tag_126:\n        /* \"#utility.yul\":4971:5091   */\n    tag_125:\n        /* \"#utility.yul\":5130:5131   */\n      0x00\n        /* \"#utility.yul\":5155:5218   */\n      tag_127\n        /* \"#utility.yul\":5210:5217   */\n      dup9\n        /* \"#utility.yul\":5201:5207   */\n      dup3\n        /* \"#utility.yul\":5190:5199   */\n      dup10\n        /* \"#utility.yul\":5186:5208   */\n      add\n        /* \"#utility.yul\":5155:5218   */\n      tag_56\n      jump\t// in\n    tag_127:\n        /* \"#utility.yul\":5145:5218   */\n      swap6\n      pop\n        /* \"#utility.yul\":5101:5228   */\n      pop\n        /* \"#utility.yul\":5267:5269   */\n      0x20\n        /* \"#utility.yul\":5293:5356   */\n      tag_128\n        /* \"#utility.yul\":5348:5355   */\n      dup9\n        /* \"#utility.yul\":5339:5345   */\n      dup3\n        /* \"#utility.yul\":5328:5337   */\n      dup10\n        /* \"#utility.yul\":5324:5346   */\n      add\n        /* \"#utility.yul\":5293:5356   */\n      tag_59\n      jump\t// in\n    tag_128:\n        /* \"#utility.yul\":5283:5356   */\n      swap5\n      pop\n        /* \"#utility.yul\":5238:5366   */\n      pop\n        /* \"#utility.yul\":5405:5407   */\n      0x40\n        /* \"#utility.yul\":5431:5495   */\n      tag_129\n        /* \"#utility.yul\":5487:5494   */\n      dup9\n        /* \"#utility.yul\":5478:5484   */\n      dup3\n        /* \"#utility.yul\":5467:5476   */\n      dup10\n        /* \"#utility.yul\":5463:5485   */\n      add\n        /* \"#utility.yul\":5431:5495   */\n      tag_49\n      jump\t// in\n    tag_129:\n        /* \"#utility.yul\":5421:5495   */\n      swap4\n      pop\n        /* \"#utility.yul\":5376:5505   */\n      pop\n        /* \"#utility.yul\":5544:5546   */\n      0x60\n        /* \"#utility.yul\":5570:5634   */\n      tag_130\n        /* \"#utility.yul\":5626:5633   */\n      dup9\n        /* \"#utility.yul\":5617:5623   */\n      dup3\n        /* \"#utility.yul\":5606:5615   */\n      dup10\n        /* \"#utility.yul\":5602:5624   */\n      add\n        /* \"#utility.yul\":5570:5634   */\n      tag_49\n      jump\t// in\n    tag_130:\n        /* \"#utility.yul\":5560:5634   */\n      swap3\n      pop\n        /* \"#utility.yul\":5515:5644   */\n      pop\n        /* \"#utility.yul\":5683:5686   */\n      0x80\n        /* \"#utility.yul\":5710:5773   */\n      tag_131\n        /* \"#utility.yul\":5765:5772   */\n      dup9\n        /* \"#utility.yul\":5756:5762   */\n      dup3\n        /* \"#utility.yul\":5745:5754   */\n      dup10\n        /* \"#utility.yul\":5741:5763   */\n      add\n        /* \"#utility.yul\":5710:5773   */\n      tag_56\n      jump\t// in\n    tag_131:\n        /* \"#utility.yul\":5700:5773   */\n      swap2\n      pop\n        /* \"#utility.yul\":5654:5783   */\n      pop\n        /* \"#utility.yul\":4819:5790   */\n      swap3\n      swap6\n      pop\n      swap3\n      swap6\n      swap1\n      swap4\n      pop\n      jump\t// out\n        /* \"#utility.yul\":5796:6352   */\n    tag_39:\n        /* \"#utility.yul\":5835:5842   */\n      0x00\n        /* \"#utility.yul\":5858:5877   */\n      tag_133\n        /* \"#utility.yul\":5875:5876   */\n      dup3\n        /* \"#utility.yul\":5858:5877   */\n      tag_57\n      jump\t// in\n    tag_133:\n        /* \"#utility.yul\":5853:5877   */\n      swap2\n      pop\n        /* \"#utility.yul\":5891:5910   */\n      tag_134\n        /* \"#utility.yul\":5908:5909   */\n      dup4\n        /* \"#utility.yul\":5891:5910   */\n      tag_57\n      jump\t// in\n    tag_134:\n        /* \"#utility.yul\":5886:5910   */\n      swap3\n      pop\n        /* \"#utility.yul\":5945:5946   */\n      dup3\n        /* \"#utility.yul\":5942:5943   */\n      dup3\n        /* \"#utility.yul\":5938:5947   */\n      mul\n        /* \"#utility.yul\":5967:5996   */\n      tag_135\n        /* \"#utility.yul\":5984:5995   */\n      dup2\n        /* \"#utility.yul\":5967:5996   */\n      tag_57\n      jump\t// in\n    tag_135:\n        /* \"#utility.yul\":5956:5996   */\n      swap2\n      pop\n        /* \"#utility.yul\":6054:6120   */\n      0x8000000000000000000000000000000000000000000000000000000000000000\n        /* \"#utility.yul\":6051:6052   */\n      dup5\n        /* \"#utility.yul\":6048:6121   */\n      eq\n        /* \"#utility.yul\":6044:6045   */\n      0x00\n        /* \"#utility.yul\":6041:6042   */\n      dup5\n        /* \"#utility.yul\":6037:6046   */\n      slt\n        /* \"#utility.yul\":6033:6122   */\n      and\n        /* \"#utility.yul\":6030:6145   */\n      iszero\n      tag_136\n      jumpi\n        /* \"#utility.yul\":6125:6143   */\n      tag_137\n      tag_52\n      jump\t// in\n    tag_137:\n        /* \"#utility.yul\":6030:6145   */\n    tag_136:\n        /* \"#utility.yul\":6295:6296   */\n      dup3\n        /* \"#utility.yul\":6286:6293   */\n      dup3\n        /* \"#utility.yul\":6281:6297   */\n      sdiv\n        /* \"#utility.yul\":6278:6279   */\n      dup5\n        /* \"#utility.yul\":6275:6298   */\n      eq\n        /* \"#utility.yul\":6255:6256   */\n      dup4\n        /* \"#utility.yul\":6248:6257   */\n      iszero\n        /* \"#utility.yul\":6228:6312   */\n      or\n        /* \"#utility.yul\":6205:6345   */\n      tag_138\n      jumpi\n        /* \"#utility.yul\":6325:6343   */\n      tag_139\n      tag_52\n      jump\t// in\n    tag_139:\n        /* \"#utility.yul\":6205:6345   */\n    tag_138:\n        /* \"#utility.yul\":5843:6352   */\n      pop\n        /* \"#utility.yul\":5796:6352   */\n      swap3\n      swap2\n      pop\n      pop\n      jump\t// out\n\n    auxdata: 0xa26469706673582212206e047300fc0cb1ea3e7c0fd6ab1a9db21d8bab758c5183e8386b662fe8cbcbea64736f6c634300081a0033\n}\n",
				"bytecode": {
					"linkReferences": {},
					"object": "61065561004d600b8282823980515f1a6073146041577f4e487b71000000000000000000000000000000000000000000000000000000005f525f60045260245ffd5b305f52607381538281f3fe730000000000000000000000000000000000000000301460806040526004361061004a575f3560e01c80630eae8d571461004e5780636e5b6b281461006d57806398d5fdca1461009d575b5f80fd5b6100566100bb565b6040516100649291906102c8565b60405180910390f35b6100876004803603810190610082919061031d565b6101b8565b6040516100949190610348565b60405180910390f35b6100a56101f0565b6040516100b29190610348565b60405180910390f35b5f805f73694aa1769357215de4fac081bf1f309adc32530690508073ffffffffffffffffffffffffffffffffffffffff166354fd4d506040518163ffffffff1660e01b8152600401602060405180830381865afa15801561011e573d5f803e3d5ffd5b505050506040513d601f19601f820116820180604052508101906101429190610375565b8173ffffffffffffffffffffffffffffffffffffffff1663313ce5676040518163ffffffff1660e01b8152600401602060405180830381865afa15801561018b573d5f803e3d5ffd5b505050506040513d601f19601f820116820180604052508101906101af91906103ca565b92509250509091565b5f806101c26101f0565b90505f670de0b6b3a764000082856101da9190610422565b6101e49190610490565b90508092505050919050565b5f8073694aa1769357215de4fac081bf1f309adc32530690505f8173ffffffffffffffffffffffffffffffffffffffff1663feaf968c6040518163ffffffff1660e01b815260040160a060405180830381865afa158015610253573d5f803e3d5ffd5b505050506040513d601f19601f820116820180604052508101906102779190610532565b5050509150506402540be4008161028e91906105a9565b9250505090565b5f819050919050565b6102a781610295565b82525050565b5f60ff82169050919050565b6102c2816102ad565b82525050565b5f6040820190506102db5f83018561029e565b6102e860208301846102b9565b9392505050565b5f80fd5b6102fc81610295565b8114610306575f80fd5b50565b5f81359050610317816102f3565b92915050565b5f60208284031215610332576103316102ef565b5b5f61033f84828501610309565b91505092915050565b5f60208201905061035b5f83018461029e565b92915050565b5f8151905061036f816102f3565b92915050565b5f6020828403121561038a576103896102ef565b5b5f61039784828501610361565b91505092915050565b6103a9816102ad565b81146103b3575f80fd5b50565b5f815190506103c4816103a0565b92915050565b5f602082840312156103df576103de6102ef565b5b5f6103ec848285016103b6565b91505092915050565b7f4e487b71000000000000000000000000000000000000000000000000000000005f52601160045260245ffd5b5f61042c82610295565b915061043783610295565b925082820261044581610295565b9150828204841483151761045c5761045b6103f5565b5b5092915050565b7f4e487b71000000000000000000000000000000000000000000000000000000005f52601260045260245ffd5b5f61049a82610295565b91506104a583610295565b9250826104b5576104b4610463565b5b828204905092915050565b5f69ffffffffffffffffffff82169050919050565b6104de816104c0565b81146104e8575f80fd5b50565b5f815190506104f9816104d5565b92915050565b5f819050919050565b610511816104ff565b811461051b575f80fd5b50565b5f8151905061052c81610508565b92915050565b5f805f805f60a0868803121561054b5761054a6102ef565b5b5f610558888289016104eb565b95505060206105698882890161051e565b945050604061057a88828901610361565b935050606061058b88828901610361565b925050608061059c888289016104eb565b9150509295509295909350565b5f6105b3826104ff565b91506105be836104ff565b92508282026105cc816104ff565b91507f800000000000000000000000000000000000000000000000000000000000000084145f84121615610603576106026103f5565b5b8282058414831517610618576106176103f5565b5b509291505056fea26469706673582212206e047300fc0cb1ea3e7c0fd6ab1a9db21d8bab758c5183e8386b662fe8cbcbea64736f6c634300081a0033",
					"opcodes": "PUSH2 0x655 PUSH2 0x4D PUSH1 0xB DUP3 DUP3 DUP3 CODECOPY DUP1 MLOAD PUSH0 BYTE PUSH1 0x73 EQ PUSH1 0x41 JUMPI PUSH32 0x4E487B7100000000000000000000000000000000000000000000000000000000 PUSH0 MSTORE PUSH0 PUSH1 0x4 MSTORE PUSH1 0x24 PUSH0 REVERT JUMPDEST ADDRESS PUSH0 MSTORE PUSH1 0x73 DUP2 MSTORE8 DUP3 DUP2 RETURN INVALID PUSH20 0x0 ADDRESS EQ PUSH1 0x80 PUSH1 0x40 MSTORE PUSH1 0x4 CALLDATASIZE LT PUSH2 0x4A JUMPI PUSH0 CALLDATALOAD PUSH1 0xE0 SHR DUP1 PUSH4 0xEAE8D57 EQ PUSH2 0x4E JUMPI DUP1 PUSH4 0x6E5B6B28 EQ PUSH2 0x6D JUMPI DUP1 PUSH4 0x98D5FDCA EQ PUSH2 0x9D JUMPI JUMPDEST PUSH0 DUP1 REVERT JUMPDEST PUSH2 0x56 PUSH2 0xBB JUMP JUMPDEST PUSH1 0x40 MLOAD PUSH2 0x64 SWAP3 SWAP2 SWAP1 PUSH2 0x2C8 JUMP JUMPDEST PUSH1 0x40 MLOAD DUP1 SWAP2 SUB SWAP1 RETURN JUMPDEST PUSH2 0x87 PUSH1 0x4 DUP1 CALLDATASIZE SUB DUP2 ADD SWAP1 PUSH2 0x82 SWAP2 SWAP1 PUSH2 0x31D JUMP JUMPDEST PUSH2 0x1B8 JUMP JUMPDEST PUSH1 0x40 MLOAD PUSH2 0x94 SWAP2 SWAP1 PUSH2 0x348 JUMP JUMPDEST PUSH1 0x40 MLOAD DUP1 SWAP2 SUB SWAP1 RETURN JUMPDEST PUSH2 0xA5 PUSH2 0x1F0 JUMP JUMPDEST PUSH1 0x40 MLOAD PUSH2 0xB2 SWAP2 SWAP1 PUSH2 0x348 JUMP JUMPDEST PUSH1 0x40 MLOAD DUP1 SWAP2 SUB SWAP1 RETURN JUMPDEST PUSH0 DUP1 PUSH0 PUSH20 0x694AA1769357215DE4FAC081BF1F309ADC325306 SWAP1 POP DUP1 PUSH20 0xFFFFFFFFFFFFFFFFFFFFFFFFFFFFFFFFFFFFFFFF AND PUSH4 0x54FD4D50 PUSH1 0x40 MLOAD DUP2 PUSH4 0xFFFFFFFF AND PUSH1 0xE0 SHL DUP2 MSTORE PUSH1 0x4 ADD PUSH1 0x20 PUSH1 0x40 MLOAD DUP1 DUP4 SUB DUP2 DUP7 GAS STATICCALL ISZERO DUP1 ISZERO PUSH2 0x11E JUMPI RETURNDATASIZE PUSH0 DUP1 RETURNDATACOPY RETURNDATASIZE PUSH0 REVERT JUMPDEST POP POP POP POP PUSH1 0x40 MLOAD RETURNDATASIZE PUSH1 0x1F NOT PUSH1 0x1F DUP3 ADD AND DUP3 ADD DUP1 PUSH1 0x40 MSTORE POP DUP2 ADD SWAP1 PUSH2 0x142 SWAP2 SWAP1 PUSH2 0x375 JUMP JUMPDEST DUP2 PUSH20 0xFFFFFFFFFFFFFFFFFFFFFFFFFFFFFFFFFFFFFFFF AND PUSH4 0x313CE567 PUSH1 0x40 MLOAD DUP2 PUSH4 0xFFFFFFFF AND PUSH1 0xE0 SHL DUP2 MSTORE PUSH1 0x4 ADD PUSH1 0x20 PUSH1 0x40 MLOAD DUP1 DUP4 SUB DUP2 DUP7 GAS STATICCALL ISZERO DUP1 ISZERO PUSH2 0x18B JUMPI RETURNDATASIZE PUSH0 DUP1 RETURNDATACOPY RETURNDATASIZE PUSH0 REVERT JUMPDEST POP POP POP POP PUSH1 0x40 MLOAD RETURNDATASIZE PUSH1 0x1F NOT PUSH1 0x1F DUP3 ADD AND DUP3 ADD DUP1 PUSH1 0x40 MSTORE POP DUP2 ADD SWAP1 PUSH2 0x1AF SWAP2 SWAP1 PUSH2 0x3CA JUMP JUMPDEST SWAP3 POP SWAP3 POP POP SWAP1 SWAP2 JUMP JUMPDEST PUSH0 DUP1 PUSH2 0x1C2 PUSH2 0x1F0 JUMP JUMPDEST SWAP1 POP PUSH0 PUSH8 0xDE0B6B3A7640000 DUP3 DUP6 PUSH2 0x1DA SWAP2 SWAP1 PUSH2 0x422 JUMP JUMPDEST PUSH2 0x1E4 SWAP2 SWAP1 PUSH2 0x490 JUMP JUMPDEST SWAP1 POP DUP1 SWAP3 POP POP POP SWAP2 SWAP1 POP JUMP JUMPDEST PUSH0 DUP1 PUSH20 0x694AA1769357215DE4FAC081BF1F309ADC325306 SWAP1 POP PUSH0 DUP2 PUSH20 0xFFFFFFFFFFFFFFFFFFFFFFFFFFFFFFFFFFFFFFFF AND PUSH4 0xFEAF968C PUSH1 0x40 MLOAD DUP2 PUSH4 0xFFFFFFFF AND PUSH1 0xE0 SHL DUP2 MSTORE PUSH1 0x4 ADD PUSH1 0xA0 PUSH1 0x40 MLOAD DUP1 DUP4 SUB DUP2 DUP7 GAS STATICCALL ISZERO DUP1 ISZERO PUSH2 0x253 JUMPI RETURNDATASIZE PUSH0 DUP1 RETURNDATACOPY RETURNDATASIZE PUSH0 REVERT JUMPDEST POP POP POP POP PUSH1 0x40 MLOAD RETURNDATASIZE PUSH1 0x1F NOT PUSH1 0x1F DUP3 ADD AND DUP3 ADD DUP1 PUSH1 0x40 MSTORE POP DUP2 ADD SWAP1 PUSH2 0x277 SWAP2 SWAP1 PUSH2 0x532 JUMP JUMPDEST POP POP POP SWAP2 POP POP PUSH5 0x2540BE400 DUP2 PUSH2 0x28E SWAP2 SWAP1 PUSH2 0x5A9 JUMP JUMPDEST SWAP3 POP POP POP SWAP1 JUMP JUMPDEST PUSH0 DUP2 SWAP1 POP SWAP2 SWAP1 POP JUMP JUMPDEST PUSH2 0x2A7 DUP2 PUSH2 0x295 JUMP JUMPDEST DUP3 MSTORE POP POP JUMP JUMPDEST PUSH0 PUSH1 0xFF DUP3 AND SWAP1 POP SWAP2 SWAP1 POP JUMP JUMPDEST PUSH2 0x2C2 DUP2 PUSH2 0x2AD JUMP JUMPDEST DUP3 MSTORE POP POP JUMP JUMPDEST PUSH0 PUSH1 0x40 DUP3 ADD SWAP1 POP PUSH2 0x2DB PUSH0 DUP4 ADD DUP6 PUSH2 0x29E JUMP JUMPDEST PUSH2 0x2E8 PUSH1 0x20 DUP4 ADD DUP5 PUSH2 0x2B9 JUMP JUMPDEST SWAP4 SWAP3 POP POP POP JUMP JUMPDEST PUSH0 DUP1 REVERT JUMPDEST PUSH2 0x2FC DUP2 PUSH2 0x295 JUMP JUMPDEST DUP2 EQ PUSH2 0x306 JUMPI PUSH0 DUP1 REVERT JUMPDEST POP JUMP JUMPDEST PUSH0 DUP2 CALLDATALOAD SWAP1 POP PUSH2 0x317 DUP2 PUSH2 0x2F3 JUMP JUMPDEST SWAP3 SWAP2 POP POP JUMP JUMPDEST PUSH0 PUSH1 0x20 DUP3 DUP5 SUB SLT ISZERO PUSH2 0x332 JUMPI PUSH2 0x331 PUSH2 0x2EF JUMP JUMPDEST JUMPDEST PUSH0 PUSH2 0x33F DUP5 DUP3 DUP6 ADD PUSH2 0x309 JUMP JUMPDEST SWAP2 POP POP SWAP3 SWAP2 POP POP JUMP JUMPDEST PUSH0 PUSH1 0x20 DUP3 ADD SWAP1 POP PUSH2 0x35B PUSH0 DUP4 ADD DUP5 PUSH2 0x29E JUMP JUMPDEST SWAP3 SWAP2 POP POP JUMP JUMPDEST PUSH0 DUP2 MLOAD SWAP1 POP PUSH2 0x36F DUP2 PUSH2 0x2F3 JUMP JUMPDEST SWAP3 SWAP2 POP POP JUMP JUMPDEST PUSH0 PUSH1 0x20 DUP3 DUP5 SUB SLT ISZERO PUSH2 0x38A JUMPI PUSH2 0x389 PUSH2 0x2EF JUMP JUMPDEST JUMPDEST PUSH0 PUSH2 0x397 DUP5 DUP3 DUP6 ADD PUSH2 0x361 JUMP JUMPDEST SWAP2 POP POP SWAP3 SWAP2 POP POP JUMP JUMPDEST PUSH2 0x3A9 DUP2 PUSH2 0x2AD JUMP JUMPDEST DUP2 EQ PUSH2 0x3B3 JUMPI PUSH0 DUP1 REVERT JUMPDEST POP JUMP JUMPDEST PUSH0 DUP2 MLOAD SWAP1 POP PUSH2 0x3C4 DUP2 PUSH2 0x3A0 JUMP JUMPDEST SWAP3 SWAP2 POP POP JUMP JUMPDEST PUSH0 PUSH1 0x20 DUP3 DUP5 SUB SLT ISZERO PUSH2 0x3DF JUMPI PUSH2 0x3DE PUSH2 0x2EF JUMP JUMPDEST JUMPDEST PUSH0 PUSH2 0x3EC DUP5 DUP3 DUP6 ADD PUSH2 0x3B6 JUMP JUMPDEST SWAP2 POP POP SWAP3 SWAP2 POP POP JUMP JUMPDEST PUSH32 0x4E487B7100000000000000000000000000000000000000000000000000000000 PUSH0 MSTORE PUSH1 0x11 PUSH1 0x4 MSTORE PUSH1 0x24 PUSH0 REVERT JUMPDEST PUSH0 PUSH2 0x42C DUP3 PUSH2 0x295 JUMP JUMPDEST SWAP2 POP PUSH2 0x437 DUP4 PUSH2 0x295 JUMP JUMPDEST SWAP3 POP DUP3 DUP3 MUL PUSH2 0x445 DUP2 PUSH2 0x295 JUMP JUMPDEST SWAP2 POP DUP3 DUP3 DIV DUP5 EQ DUP4 ISZERO OR PUSH2 0x45C JUMPI PUSH2 0x45B PUSH2 0x3F5 JUMP JUMPDEST JUMPDEST POP SWAP3 SWAP2 POP POP JUMP JUMPDEST PUSH32 0x4E487B7100000000000000000000000000000000000000000000000000000000 PUSH0 MSTORE PUSH1 0x12 PUSH1 0x4 MSTORE PUSH1 0x24 PUSH0 REVERT JUMPDEST PUSH0 PUSH2 0x49A DUP3 PUSH2 0x295 JUMP JUMPDEST SWAP2 POP PUSH2 0x4A5 DUP4 PUSH2 0x295 JUMP JUMPDEST SWAP3 POP DUP3 PUSH2 0x4B5 JUMPI PUSH2 0x4B4 PUSH2 0x463 JUMP JUMPDEST JUMPDEST DUP3 DUP3 DIV SWAP1 POP SWAP3 SWAP2 POP POP JUMP JUMPDEST PUSH0 PUSH10 0xFFFFFFFFFFFFFFFFFFFF DUP3 AND SWAP1 POP SWAP2 SWAP1 POP JUMP JUMPDEST PUSH2 0x4DE DUP2 PUSH2 0x4C0 JUMP JUMPDEST DUP2 EQ PUSH2 0x4E8 JUMPI PUSH0 DUP1 REVERT JUMPDEST POP JUMP JUMPDEST PUSH0 DUP2 MLOAD SWAP1 POP PUSH2 0x4F9 DUP2 PUSH2 0x4D5 JUMP JUMPDEST SWAP3 SWAP2 POP POP JUMP JUMPDEST PUSH0 DUP2 SWAP1 POP SWAP2 SWAP1 POP JUMP JUMPDEST PUSH2 0x511 DUP2 PUSH2 0x4FF JUMP JUMPDEST DUP2 EQ PUSH2 0x51B JUMPI PUSH0 DUP1 REVERT JUMPDEST POP JUMP JUMPDEST PUSH0 DUP2 MLOAD SWAP1 POP PUSH2 0x52C DUP2 PUSH2 0x508 JUMP JUMPDEST SWAP3 SWAP2 POP POP JUMP JUMPDEST PUSH0 DUP1 PUSH0 DUP1 PUSH0 PUSH1 0xA0 DUP7 DUP9 SUB SLT ISZERO PUSH2 0x54B JUMPI PUSH2 0x54A PUSH2 0x2EF JUMP JUMPDEST JUMPDEST PUSH0 PUSH2 0x558 DUP9 DUP3 DUP10 ADD PUSH2 0x4EB JUMP JUMPDEST SWAP6 POP POP PUSH1 0x20 PUSH2 0x569 DUP9 DUP3 DUP10 ADD PUSH2 0x51E JUMP JUMPDEST SWAP5 POP POP PUSH1 0x40 PUSH2 0x57A DUP9 DUP3 DUP10 ADD PUSH2 0x361 JUMP JUMPDEST SWAP4 POP POP PUSH1 0x60 PUSH2 0x58B DUP9 DUP3 DUP10 ADD PUSH2 0x361 JUMP JUMPDEST SWAP3 POP POP PUSH1 0x80 PUSH2 0x59C DUP9 DUP3 DUP10 ADD PUSH2 0x4EB JUMP JUMPDEST SWAP2 POP POP SWAP3 SWAP6 POP SWAP3 SWAP6 SWAP1 SWAP4 POP JUMP JUMPDEST PUSH0 PUSH2 0x5B3 DUP3 PUSH2 0x4FF JUMP JUMPDEST SWAP2 POP PUSH2 0x5BE DUP4 PUSH2 0x4FF JUMP JUMPDEST SWAP3 POP DUP3 DUP3 MUL PUSH2 0x5CC DUP2 PUSH2 0x4FF JUMP JUMPDEST SWAP2 POP PUSH32 0x8000000000000000000000000000000000000000000000000000000000000000 DUP5 EQ PUSH0 DUP5 SLT AND ISZERO PUSH2 0x603 JUMPI PUSH2 0x602 PUSH2 0x3F5 JUMP JUMPDEST JUMPDEST DUP3 DUP3 SDIV DUP5 EQ DUP4 ISZERO OR PUSH2 0x618 JUMPI PUSH2 0x617 PUSH2 0x3F5 JUMP JUMPDEST JUMPDEST POP SWAP3 SWAP2 POP POP JUMP INVALID LOG2 PUSH5 0x6970667358 0x22 SLT KECCAK256 PUSH15 0x47300FC0CB1EA3E7C0FD6AB1A9DB2 SAR DUP12 0xAB PUSH22 0x8C5183E8386B662FE8CBCBEA64736F6C634300081A00 CALLER "
				},
				"gasEstimates": {
					"creation": {
						"codeDepositCost": "324200",
						"executionCost": "385",
						"totalCost": "324585"
					},
					"external": {
						"getConversionRate(uint256)": "infinite",
						"getPrice()": "infinite",
						"getVersionNDecimals()": "infinite"
					}
				},
				"methodIdentifiers": {
					"getConversionRate(uint256)": "6e5b6b28",
					"getPrice()": "98d5fdca",
					"getVersionNDecimals()": "0eae8d57"
				}
			},
			"storageLayout": {
				"storage": [],
				"types": null
			},
			"userdoc": {
				"kind": "user",
				"methods": {},
				"version": 1
			}
		}
	}
}