{
	"contracts/FundMe.sol": {
		"FundMe": {
			"abi": [
				{
					"inputs": [
						{
							"internalType": "uint256",
							"name": "_amount",
							"type": "uint256"
						}
					],
					"name": "convertion",
					"outputs": [
						{
							"internalType": "uint256",
							"name": "",
							"type": "uint256"
						}
					],
					"stateMutability": "view",
					"type": "function"
				},
				{
					"inputs": [],
					"name": "fund",
					"outputs": [],
					"stateMutability": "payable",
					"type": "function"
				},
				{
					"inputs": [
						{
							"internalType": "uint256",
							"name": "",
							"type": "uint256"
						}
					],
					"name": "funders",
					"outputs": [
						{
							"internalType": "address",
							"name": "",
							"type": "address"
						}
					],
					"stateMutability": "view",
					"type": "function"
				},
				{
					"inputs": [],
					"name": "getPrice",
					"outputs": [
						{
							"internalType": "uint256",
							"name": "",
							"type": "uint256"
						}
					],
					"stateMutability": "view",
					"type": "function"
				},
				{
					"inputs": [],
					"name": "getVersion",
					"outputs": [
						{
							"internalType": "uint256",
							"name": "",
							"type": "uint256"
						},
						{
							"internalType": "uint8",
							"name": "",
							"type": "uint8"
						}
					],
					"stateMutability": "view",
					"type": "function"
				}
			],
			"devdoc": {
				"kind": "dev",
				"methods": {},
				"version": 1
			},
			"evm": {
				"assembly": "    /* \"contracts/FundMe.sol\":173:1436  contract FundMe{... */\n  mstore(0x40, 0x80)\n    /* \"contracts/FundMe.sol\":212:220  5 * 1e18 */\n  0x4563918244f40000\n    /* \"contracts/FundMe.sol\":195:220  uint256 minUsd = 5 * 1e18 */\n  0x00\n  sstore\n    /* \"contracts/FundMe.sol\":173:1436  contract FundMe{... */\n  callvalue\n  dup1\n  iszero\n  tag_1\n  jumpi\n  0x00\n  dup1\n  revert\ntag_1:\n  pop\n  dataSize(sub_0)\n  dup1\n  dataOffset(sub_0)\n  0x00\n  codecopy\n  0x00\n  return\nstop\n\nsub_0: assembly {\n        /* \"contracts/FundMe.sol\":173:1436  contract FundMe{... */\n      mstore(0x40, 0x80)\n      jumpi(tag_1, lt(calldatasize, 0x04))\n      shr(0xe0, calldataload(0x00))\n      dup1\n      0x0d8e6e2c\n      eq\n      tag_2\n      jumpi\n      dup1\n      0x22f5c40c\n      eq\n      tag_3\n      jumpi\n      dup1\n      0x98d5fdca\n      eq\n      tag_4\n      jumpi\n      dup1\n      0xb60d4288\n      eq\n      tag_5\n      jumpi\n      dup1\n      0xdc0d3dff\n      eq\n      tag_6\n      jumpi\n    tag_1:\n      0x00\n      dup1\n      revert\n        /* \"contracts/FundMe.sol\":1218:1434  function getVersion() public view returns(uint256, uint8) {... */\n    tag_2:\n      callvalue\n      dup1\n      iszero\n      tag_7\n      jumpi\n      0x00\n      dup1\n      revert\n    tag_7:\n      pop\n      tag_8\n      tag_9\n      jump\t// in\n    tag_8:\n      mload(0x40)\n      tag_10\n      swap3\n      swap2\n      swap1\n      tag_11\n      jump\t// in\n    tag_10:\n      mload(0x40)\n      dup1\n      swap2\n      sub\n      swap1\n      return\n        /* \"contracts/FundMe.sol\":1019:1212  function convertion(uint256 _amount) public view returns(uint256) {... */\n    tag_3:\n      callvalue\n      dup1\n      iszero\n      tag_12\n      jumpi\n      0x00\n      dup1\n      revert\n    tag_12:\n      pop\n      tag_13\n      0x04\n      dup1\n      calldatasize\n      sub\n      dup2\n      add\n      swap1\n      tag_14\n      swap2\n      swap1\n      tag_15\n      jump\t// in\n    tag_14:\n      tag_16\n      jump\t// in\n    tag_13:\n      mload(0x40)\n      tag_17\n      swap2\n      swap1\n      tag_18\n      jump\t// in\n    tag_17:\n      mload(0x40)\n      dup1\n      swap2\n      sub\n      swap1\n      return\n        /* \"contracts/FundMe.sol\":602:1013  function getPrice() public view returns(uint256) {... */\n    tag_4:\n      callvalue\n      dup1\n      iszero\n      tag_19\n      jumpi\n      0x00\n      dup1\n      revert\n    tag_19:\n      pop\n      tag_20\n      tag_21\n      jump\t// in\n    tag_20:\n      mload(0x40)\n      tag_22\n      swap2\n      swap1\n      tag_18\n      jump\t// in\n    tag_22:\n      mload(0x40)\n      dup1\n      swap2\n      sub\n      swap1\n      return\n        /* \"contracts/FundMe.sol\":322:596  function fund() public payable{... */\n    tag_5:\n      tag_23\n      tag_24\n      jump\t// in\n    tag_23:\n      stop\n        /* \"contracts/FundMe.sol\":226:250  address[] public funders */\n    tag_6:\n      callvalue\n      dup1\n      iszero\n      tag_25\n      jumpi\n      0x00\n      dup1\n      revert\n    tag_25:\n      pop\n      tag_26\n      0x04\n      dup1\n      calldatasize\n      sub\n      dup2\n      add\n      swap1\n      tag_27\n      swap2\n      swap1\n      tag_15\n      jump\t// in\n    tag_27:\n      tag_28\n      jump\t// in\n    tag_26:\n      mload(0x40)\n      tag_29\n      swap2\n      swap1\n      tag_30\n      jump\t// in\n    tag_29:\n      mload(0x40)\n      dup1\n      swap2\n      sub\n      swap1\n      return\n        /* \"contracts/FundMe.sol\":1218:1434  function getVersion() public view returns(uint256, uint8) {... */\n    tag_9:\n        /* \"contracts/FundMe.sol\":1260:1267  uint256 */\n      0x00\n        /* \"contracts/FundMe.sol\":1269:1274  uint8 */\n      dup1\n        /* \"contracts/FundMe.sol\":1286:1311  AggregatorV3Interface obj */\n      0x00\n        /* \"contracts/FundMe.sol\":1336:1378  0x694AA1769357215DE4FAC081bf1f309aDC325306 */\n      0x694aa1769357215de4fac081bf1f309adc325306\n        /* \"contracts/FundMe.sol\":1286:1379  AggregatorV3Interface obj = AggregatorV3Interface(0x694AA1769357215DE4FAC081bf1f309aDC325306) */\n      swap1\n      pop\n        /* \"contracts/FundMe.sol\":1397:1400  obj */\n      dup1\n        /* \"contracts/FundMe.sol\":1397:1408  obj.version */\n      0xffffffffffffffffffffffffffffffffffffffff\n      and\n      0x54fd4d50\n        /* \"contracts/FundMe.sol\":1397:1410  obj.version() */\n      mload(0x40)\n      dup2\n      0xffffffff\n      and\n      0xe0\n      shl\n      dup2\n      mstore\n      0x04\n      add\n      0x20\n      mload(0x40)\n      dup1\n      dup4\n      sub\n      dup2\n      dup7\n      gas\n      staticcall\n      iszero\n      dup1\n      iszero\n      tag_33\n      jumpi\n      returndatasize\n      0x00\n      dup1\n      returndatacopy\n      revert(0x00, returndatasize)\n    tag_33:\n      pop\n      pop\n      pop\n      pop\n      mload(0x40)\n      returndatasize\n      not(0x1f)\n      0x1f\n      dup3\n      add\n      and\n      dup3\n      add\n      dup1\n      0x40\n      mstore\n      pop\n      dup2\n      add\n      swap1\n      tag_34\n      swap2\n      swap1\n      tag_35\n      jump\t// in\n    tag_34:\n        /* \"contracts/FundMe.sol\":1412:1415  obj */\n      dup2\n        /* \"contracts/FundMe.sol\":1412:1424  obj.decimals */\n      0xffffffffffffffffffffffffffffffffffffffff\n      and\n      0x313ce567\n        /* \"contracts/FundMe.sol\":1412:1426  obj.decimals() */\n      mload(0x40)\n      dup2\n      0xffffffff\n      and\n      0xe0\n      shl\n      dup2\n      mstore\n      0x04\n      add\n      0x20\n      mload(0x40)\n      dup1\n      dup4\n      sub\n      dup2\n      dup7\n      gas\n      staticcall\n      iszero\n      dup1\n      iszero\n      tag_37\n      jumpi\n      returndatasize\n      0x00\n      dup1\n      returndatacopy\n      revert(0x00, returndatasize)\n    tag_37:\n      pop\n      pop\n      pop\n      pop\n      mload(0x40)\n      returndatasize\n      not(0x1f)\n      0x1f\n      dup3\n      add\n      and\n      dup3\n      add\n      dup1\n      0x40\n      mstore\n      pop\n      dup2\n      add\n      swap1\n      tag_38\n      swap2\n      swap1\n      tag_39\n      jump\t// in\n    tag_38:\n        /* \"contracts/FundMe.sol\":1389:1427  return (obj.version(), obj.decimals()) */\n      swap3\n      pop\n      swap3\n      pop\n      pop\n        /* \"contracts/FundMe.sol\":1218:1434  function getVersion() public view returns(uint256, uint8) {... */\n      swap1\n      swap2\n      jump\t// out\n        /* \"contracts/FundMe.sol\":1019:1212  function convertion(uint256 _amount) public view returns(uint256) {... */\n    tag_16:\n        /* \"contracts/FundMe.sol\":1076:1083  uint256 */\n      0x00\n        /* \"contracts/FundMe.sol\":1095:1111  uint256 ethPrice */\n      dup1\n        /* \"contracts/FundMe.sol\":1114:1124  getPrice() */\n      tag_41\n        /* \"contracts/FundMe.sol\":1114:1122  getPrice */\n      tag_21\n        /* \"contracts/FundMe.sol\":1114:1124  getPrice() */\n      jump\t// in\n    tag_41:\n        /* \"contracts/FundMe.sol\":1095:1124  uint256 ethPrice = getPrice() */\n      swap1\n      pop\n        /* \"contracts/FundMe.sol\":1134:1150  uint256 ethToUsd */\n      0x00\n        /* \"contracts/FundMe.sol\":1176:1180  1e18 */\n      0x0de0b6b3a7640000\n        /* \"contracts/FundMe.sol\":1164:1172  ethPrice */\n      dup3\n        /* \"contracts/FundMe.sol\":1154:1161  _amount */\n      dup6\n        /* \"contracts/FundMe.sol\":1154:1172  _amount * ethPrice */\n      tag_42\n      swap2\n      swap1\n      tag_43\n      jump\t// in\n    tag_42:\n        /* \"contracts/FundMe.sol\":1153:1180  (_amount * ethPrice) / 1e18 */\n      tag_44\n      swap2\n      swap1\n      tag_45\n      jump\t// in\n    tag_44:\n        /* \"contracts/FundMe.sol\":1134:1180  uint256 ethToUsd = (_amount * ethPrice) / 1e18 */\n      swap1\n      pop\n        /* \"contracts/FundMe.sol\":1197:1205  ethToUsd */\n      dup1\n        /* \"contracts/FundMe.sol\":1190:1205  return ethToUsd */\n      swap3\n      pop\n      pop\n      pop\n        /* \"contracts/FundMe.sol\":1019:1212  function convertion(uint256 _amount) public view returns(uint256) {... */\n      swap2\n      swap1\n      pop\n      jump\t// out\n        /* \"contracts/FundMe.sol\":602:1013  function getPrice() public view returns(uint256) {... */\n    tag_21:\n        /* \"contracts/FundMe.sol\":642:649  uint256 */\n      0x00\n        /* \"contracts/FundMe.sol\":808:839  AggregatorV3Interface priceFeed */\n      dup1\n        /* \"contracts/FundMe.sol\":864:906  0x694AA1769357215DE4FAC081bf1f309aDC325306 */\n      0x694aa1769357215de4fac081bf1f309adc325306\n        /* \"contracts/FundMe.sol\":808:907  AggregatorV3Interface priceFeed = AggregatorV3Interface(0x694AA1769357215DE4FAC081bf1f309aDC325306) */\n      swap1\n      pop\n        /* \"contracts/FundMe.sol\":919:931  int256 price */\n      0x00\n        /* \"contracts/FundMe.sol\":941:950  priceFeed */\n      dup2\n        /* \"contracts/FundMe.sol\":941:966  priceFeed.latestRoundData */\n      0xffffffffffffffffffffffffffffffffffffffff\n      and\n      0xfeaf968c\n        /* \"contracts/FundMe.sol\":941:968  priceFeed.latestRoundData() */\n      mload(0x40)\n      dup2\n      0xffffffff\n      and\n      0xe0\n      shl\n      dup2\n      mstore\n      0x04\n      add\n      0xa0\n      mload(0x40)\n      dup1\n      dup4\n      sub\n      dup2\n      dup7\n      gas\n      staticcall\n      iszero\n      dup1\n      iszero\n      tag_48\n      jumpi\n      returndatasize\n      0x00\n      dup1\n      returndatacopy\n      revert(0x00, returndatasize)\n    tag_48:\n      pop\n      pop\n      pop\n      pop\n      mload(0x40)\n      returndatasize\n      not(0x1f)\n      0x1f\n      dup3\n      add\n      and\n      dup3\n      add\n      dup1\n      0x40\n      mstore\n      pop\n      dup2\n      add\n      swap1\n      tag_49\n      swap2\n      swap1\n      tag_50\n      jump\t// in\n    tag_49:\n        /* \"contracts/FundMe.sol\":917:968  (,int256 price, , , ) = priceFeed.latestRoundData() */\n      pop\n      pop\n      pop\n      swap2\n      pop\n      pop\n        /* \"contracts/FundMe.sol\":1001:1005  1e10 */\n      0x02540be400\n        /* \"contracts/FundMe.sol\":993:998  price */\n      dup2\n        /* \"contracts/FundMe.sol\":993:1005  price * 1e10 */\n      tag_51\n      swap2\n      swap1\n      tag_52\n      jump\t// in\n    tag_51:\n        /* \"contracts/FundMe.sol\":978:1006  return uint256(price * 1e10) */\n      swap3\n      pop\n      pop\n      pop\n        /* \"contracts/FundMe.sol\":602:1013  function getPrice() public view returns(uint256) {... */\n      swap1\n      jump\t// out\n        /* \"contracts/FundMe.sol\":322:596  function fund() public payable{... */\n    tag_24:\n        /* \"contracts/FundMe.sol\":395:401  minUsd */\n      sload(0x00)\n        /* \"contracts/FundMe.sol\":370:391  convertion(msg.value) */\n      tag_54\n        /* \"contracts/FundMe.sol\":381:390  msg.value */\n      callvalue\n        /* \"contracts/FundMe.sol\":370:380  convertion */\n      tag_16\n        /* \"contracts/FundMe.sol\":370:391  convertion(msg.value) */\n      jump\t// in\n    tag_54:\n        /* \"contracts/FundMe.sol\":370:401  convertion(msg.value) >= minUsd */\n      lt\n      iszero\n        /* \"contracts/FundMe.sol\":362:472  require(convertion(msg.value) >= minUsd, \"Ether amount not sufficient.Please send atleast $5 worth of ether.\") */\n      tag_55\n      jumpi\n      mload(0x40)\n      0x08c379a000000000000000000000000000000000000000000000000000000000\n      dup2\n      mstore\n      0x04\n      add\n      tag_56\n      swap1\n      tag_57\n      jump\t// in\n    tag_56:\n      mload(0x40)\n      dup1\n      swap2\n      sub\n      swap1\n      revert\n    tag_55:\n        /* \"contracts/FundMe.sol\":482:489  funders */\n      0x01\n        /* \"contracts/FundMe.sol\":495:505  msg.sender */\n      caller\n        /* \"contracts/FundMe.sol\":482:506  funders.push(msg.sender) */\n      swap1\n      dup1\n      0x01\n      dup2\n      sload\n      add\n      dup1\n      dup3\n      sstore\n      dup1\n      swap2\n      pop\n      pop\n      0x01\n      swap1\n      sub\n      swap1\n      0x00\n      mstore\n      keccak256(0x00, 0x20)\n      add\n      0x00\n      swap1\n      swap2\n      swap1\n      swap2\n      swap1\n      swap2\n      0x0100\n      exp\n      dup2\n      sload\n      dup2\n      0xffffffffffffffffffffffffffffffffffffffff\n      mul\n      not\n      and\n      swap1\n      dup4\n      0xffffffffffffffffffffffffffffffffffffffff\n      and\n      mul\n      or\n      swap1\n      sstore\n      pop\n        /* \"contracts/FundMe.sol\":580:589  msg.value */\n      callvalue\n        /* \"contracts/FundMe.sol\":548:565  funderToAmountMap */\n      0x02\n        /* \"contracts/FundMe.sol\":548:577  funderToAmountMap[msg.sender] */\n      0x00\n        /* \"contracts/FundMe.sol\":566:576  msg.sender */\n      caller\n        /* \"contracts/FundMe.sol\":548:577  funderToAmountMap[msg.sender] */\n      0xffffffffffffffffffffffffffffffffffffffff\n      and\n      0xffffffffffffffffffffffffffffffffffffffff\n      and\n      dup2\n      mstore\n      0x20\n      add\n      swap1\n      dup2\n      mstore\n      0x20\n      add\n      0x00\n      keccak256\n      sload\n        /* \"contracts/FundMe.sol\":548:589  funderToAmountMap[msg.sender] + msg.value */\n      tag_59\n      swap2\n      swap1\n      tag_60\n      jump\t// in\n    tag_59:\n        /* \"contracts/FundMe.sol\":516:533  funderToAmountMap */\n      0x02\n        /* \"contracts/FundMe.sol\":516:545  funderToAmountMap[msg.sender] */\n      0x00\n        /* \"contracts/FundMe.sol\":534:544  msg.sender */\n      caller\n        /* \"contracts/FundMe.sol\":516:545  funderToAmountMap[msg.sender] */\n      0xffffffffffffffffffffffffffffffffffffffff\n      and\n      0xffffffffffffffffffffffffffffffffffffffff\n      and\n      dup2\n      mstore\n      0x20\n      add\n      swap1\n      dup2\n      mstore\n      0x20\n      add\n      0x00\n      keccak256\n        /* \"contracts/FundMe.sol\":516:589  funderToAmountMap[msg.sender] = funderToAmountMap[msg.sender] + msg.value */\n      dup2\n      swap1\n      sstore\n      pop\n        /* \"contracts/FundMe.sol\":322:596  function fund() public payable{... */\n      jump\t// out\n        /* \"contracts/FundMe.sol\":226:250  address[] public funders */\n    tag_28:\n      0x01\n      dup2\n      dup2\n      sload\n      dup2\n      lt\n      tag_61\n      jumpi\n      0x00\n      dup1\n      revert\n    tag_61:\n      swap1\n      0x00\n      mstore\n      keccak256(0x00, 0x20)\n      add\n      0x00\n      swap2\n      pop\n      sload\n      swap1\n      0x0100\n      exp\n      swap1\n      div\n      0xffffffffffffffffffffffffffffffffffffffff\n      and\n      dup2\n      jump\t// out\n        /* \"#utility.yul\":7:84   */\n    tag_63:\n        /* \"#utility.yul\":44:51   */\n      0x00\n        /* \"#utility.yul\":73:78   */\n      dup2\n        /* \"#utility.yul\":62:78   */\n      swap1\n      pop\n        /* \"#utility.yul\":7:84   */\n      swap2\n      swap1\n      pop\n      jump\t// out\n        /* \"#utility.yul\":90:208   */\n    tag_64:\n        /* \"#utility.yul\":177:201   */\n      tag_92\n        /* \"#utility.yul\":195:200   */\n      dup2\n        /* \"#utility.yul\":177:201   */\n      tag_63\n      jump\t// in\n    tag_92:\n        /* \"#utility.yul\":172:175   */\n      dup3\n        /* \"#utility.yul\":165:202   */\n      mstore\n        /* \"#utility.yul\":90:208   */\n      pop\n      pop\n      jump\t// out\n        /* \"#utility.yul\":214:300   */\n    tag_65:\n        /* \"#utility.yul\":249:256   */\n      0x00\n        /* \"#utility.yul\":289:293   */\n      0xff\n        /* \"#utility.yul\":282:287   */\n      dup3\n        /* \"#utility.yul\":278:294   */\n      and\n        /* \"#utility.yul\":267:294   */\n      swap1\n      pop\n        /* \"#utility.yul\":214:300   */\n      swap2\n      swap1\n      pop\n      jump\t// out\n        /* \"#utility.yul\":306:418   */\n    tag_66:\n        /* \"#utility.yul\":389:411   */\n      tag_95\n        /* \"#utility.yul\":405:410   */\n      dup2\n        /* \"#utility.yul\":389:411   */\n      tag_65\n      jump\t// in\n    tag_95:\n        /* \"#utility.yul\":384:387   */\n      dup3\n        /* \"#utility.yul\":377:412   */\n      mstore\n        /* \"#utility.yul\":306:418   */\n      pop\n      pop\n      jump\t// out\n        /* \"#utility.yul\":424:748   */\n    tag_11:\n        /* \"#utility.yul\":541:545   */\n      0x00\n        /* \"#utility.yul\":579:581   */\n      0x40\n        /* \"#utility.yul\":568:577   */\n      dup3\n        /* \"#utility.yul\":564:582   */\n      add\n        /* \"#utility.yul\":556:582   */\n      swap1\n      pop\n        /* \"#utility.yul\":592:663   */\n      tag_97\n        /* \"#utility.yul\":660:661   */\n      0x00\n        /* \"#utility.yul\":649:658   */\n      dup4\n        /* \"#utility.yul\":645:662   */\n      add\n        /* \"#utility.yul\":636:642   */\n      dup6\n        /* \"#utility.yul\":592:663   */\n      tag_64\n      jump\t// in\n    tag_97:\n        /* \"#utility.yul\":673:741   */\n      tag_98\n        /* \"#utility.yul\":737:739   */\n      0x20\n        /* \"#utility.yul\":726:735   */\n      dup4\n        /* \"#utility.yul\":722:740   */\n      add\n        /* \"#utility.yul\":713:719   */\n      dup5\n        /* \"#utility.yul\":673:741   */\n      tag_66\n      jump\t// in\n    tag_98:\n        /* \"#utility.yul\":424:748   */\n      swap4\n      swap3\n      pop\n      pop\n      pop\n      jump\t// out\n        /* \"#utility.yul\":835:952   */\n    tag_68:\n        /* \"#utility.yul\":944:945   */\n      0x00\n        /* \"#utility.yul\":941:942   */\n      dup1\n        /* \"#utility.yul\":934:946   */\n      revert\n        /* \"#utility.yul\":1081:1203   */\n    tag_70:\n        /* \"#utility.yul\":1154:1178   */\n      tag_103\n        /* \"#utility.yul\":1172:1177   */\n      dup2\n        /* \"#utility.yul\":1154:1178   */\n      tag_63\n      jump\t// in\n    tag_103:\n        /* \"#utility.yul\":1147:1152   */\n      dup2\n        /* \"#utility.yul\":1144:1179   */\n      eq\n        /* \"#utility.yul\":1134:1197   */\n      tag_104\n      jumpi\n        /* \"#utility.yul\":1193:1194   */\n      0x00\n        /* \"#utility.yul\":1190:1191   */\n      dup1\n        /* \"#utility.yul\":1183:1195   */\n      revert\n        /* \"#utility.yul\":1134:1197   */\n    tag_104:\n        /* \"#utility.yul\":1081:1203   */\n      pop\n      jump\t// out\n        /* \"#utility.yul\":1209:1348   */\n    tag_71:\n        /* \"#utility.yul\":1255:1260   */\n      0x00\n        /* \"#utility.yul\":1293:1299   */\n      dup2\n        /* \"#utility.yul\":1280:1300   */\n      calldataload\n        /* \"#utility.yul\":1271:1300   */\n      swap1\n      pop\n        /* \"#utility.yul\":1309:1342   */\n      tag_106\n        /* \"#utility.yul\":1336:1341   */\n      dup2\n        /* \"#utility.yul\":1309:1342   */\n      tag_70\n      jump\t// in\n    tag_106:\n        /* \"#utility.yul\":1209:1348   */\n      swap3\n      swap2\n      pop\n      pop\n      jump\t// out\n        /* \"#utility.yul\":1354:1683   */\n    tag_15:\n        /* \"#utility.yul\":1413:1419   */\n      0x00\n        /* \"#utility.yul\":1462:1464   */\n      0x20\n        /* \"#utility.yul\":1450:1459   */\n      dup3\n        /* \"#utility.yul\":1441:1448   */\n      dup5\n        /* \"#utility.yul\":1437:1460   */\n      sub\n        /* \"#utility.yul\":1433:1465   */\n      slt\n        /* \"#utility.yul\":1430:1549   */\n      iszero\n      tag_108\n      jumpi\n        /* \"#utility.yul\":1468:1547   */\n      tag_109\n      tag_68\n      jump\t// in\n    tag_109:\n        /* \"#utility.yul\":1430:1549   */\n    tag_108:\n        /* \"#utility.yul\":1588:1589   */\n      0x00\n        /* \"#utility.yul\":1613:1666   */\n      tag_110\n        /* \"#utility.yul\":1658:1665   */\n      dup5\n        /* \"#utility.yul\":1649:1655   */\n      dup3\n        /* \"#utility.yul\":1638:1647   */\n      dup6\n        /* \"#utility.yul\":1634:1656   */\n      add\n        /* \"#utility.yul\":1613:1666   */\n      tag_71\n      jump\t// in\n    tag_110:\n        /* \"#utility.yul\":1603:1666   */\n      swap2\n      pop\n        /* \"#utility.yul\":1559:1676   */\n      pop\n        /* \"#utility.yul\":1354:1683   */\n      swap3\n      swap2\n      pop\n      pop\n      jump\t// out\n        /* \"#utility.yul\":1689:1911   */\n    tag_18:\n        /* \"#utility.yul\":1782:1786   */\n      0x00\n        /* \"#utility.yul\":1820:1822   */\n      0x20\n        /* \"#utility.yul\":1809:1818   */\n      dup3\n        /* \"#utility.yul\":1805:1823   */\n      add\n        /* \"#utility.yul\":1797:1823   */\n      swap1\n      pop\n        /* \"#utility.yul\":1833:1904   */\n      tag_112\n        /* \"#utility.yul\":1901:1902   */\n      0x00\n        /* \"#utility.yul\":1890:1899   */\n      dup4\n        /* \"#utility.yul\":1886:1903   */\n      add\n        /* \"#utility.yul\":1877:1883   */\n      dup5\n        /* \"#utility.yul\":1833:1904   */\n      tag_64\n      jump\t// in\n    tag_112:\n        /* \"#utility.yul\":1689:1911   */\n      swap3\n      swap2\n      pop\n      pop\n      jump\t// out\n        /* \"#utility.yul\":1917:2043   */\n    tag_72:\n        /* \"#utility.yul\":1954:1961   */\n      0x00\n        /* \"#utility.yul\":1994:2036   */\n      0xffffffffffffffffffffffffffffffffffffffff\n        /* \"#utility.yul\":1987:1992   */\n      dup3\n        /* \"#utility.yul\":1983:2037   */\n      and\n        /* \"#utility.yul\":1972:2037   */\n      swap1\n      pop\n        /* \"#utility.yul\":1917:2043   */\n      swap2\n      swap1\n      pop\n      jump\t// out\n        /* \"#utility.yul\":2049:2145   */\n    tag_73:\n        /* \"#utility.yul\":2086:2093   */\n      0x00\n        /* \"#utility.yul\":2115:2139   */\n      tag_115\n        /* \"#utility.yul\":2133:2138   */\n      dup3\n        /* \"#utility.yul\":2115:2139   */\n      tag_72\n      jump\t// in\n    tag_115:\n        /* \"#utility.yul\":2104:2139   */\n      swap1\n      pop\n        /* \"#utility.yul\":2049:2145   */\n      swap2\n      swap1\n      pop\n      jump\t// out\n        /* \"#utility.yul\":2151:2269   */\n    tag_74:\n        /* \"#utility.yul\":2238:2262   */\n      tag_117\n        /* \"#utility.yul\":2256:2261   */\n      dup2\n        /* \"#utility.yul\":2238:2262   */\n      tag_73\n      jump\t// in\n    tag_117:\n        /* \"#utility.yul\":2233:2236   */\n      dup3\n        /* \"#utility.yul\":2226:2263   */\n      mstore\n        /* \"#utility.yul\":2151:2269   */\n      pop\n      pop\n      jump\t// out\n        /* \"#utility.yul\":2275:2497   */\n    tag_30:\n        /* \"#utility.yul\":2368:2372   */\n      0x00\n        /* \"#utility.yul\":2406:2408   */\n      0x20\n        /* \"#utility.yul\":2395:2404   */\n      dup3\n        /* \"#utility.yul\":2391:2409   */\n      add\n        /* \"#utility.yul\":2383:2409   */\n      swap1\n      pop\n        /* \"#utility.yul\":2419:2490   */\n      tag_119\n        /* \"#utility.yul\":2487:2488   */\n      0x00\n        /* \"#utility.yul\":2476:2485   */\n      dup4\n        /* \"#utility.yul\":2472:2489   */\n      add\n        /* \"#utility.yul\":2463:2469   */\n      dup5\n        /* \"#utility.yul\":2419:2490   */\n      tag_74\n      jump\t// in\n    tag_119:\n        /* \"#utility.yul\":2275:2497   */\n      swap3\n      swap2\n      pop\n      pop\n      jump\t// out\n        /* \"#utility.yul\":2503:2646   */\n    tag_75:\n        /* \"#utility.yul\":2560:2565   */\n      0x00\n        /* \"#utility.yul\":2591:2597   */\n      dup2\n        /* \"#utility.yul\":2585:2598   */\n      mload\n        /* \"#utility.yul\":2576:2598   */\n      swap1\n      pop\n        /* \"#utility.yul\":2607:2640   */\n      tag_121\n        /* \"#utility.yul\":2634:2639   */\n      dup2\n        /* \"#utility.yul\":2607:2640   */\n      tag_70\n      jump\t// in\n    tag_121:\n        /* \"#utility.yul\":2503:2646   */\n      swap3\n      swap2\n      pop\n      pop\n      jump\t// out\n        /* \"#utility.yul\":2652:3003   */\n    tag_35:\n        /* \"#utility.yul\":2722:2728   */\n      0x00\n        /* \"#utility.yul\":2771:2773   */\n      0x20\n        /* \"#utility.yul\":2759:2768   */\n      dup3\n        /* \"#utility.yul\":2750:2757   */\n      dup5\n        /* \"#utility.yul\":2746:2769   */\n      sub\n        /* \"#utility.yul\":2742:2774   */\n      slt\n        /* \"#utility.yul\":2739:2858   */\n      iszero\n      tag_123\n      jumpi\n        /* \"#utility.yul\":2777:2856   */\n      tag_124\n      tag_68\n      jump\t// in\n    tag_124:\n        /* \"#utility.yul\":2739:2858   */\n    tag_123:\n        /* \"#utility.yul\":2897:2898   */\n      0x00\n        /* \"#utility.yul\":2922:2986   */\n      tag_125\n        /* \"#utility.yul\":2978:2985   */\n      dup5\n        /* \"#utility.yul\":2969:2975   */\n      dup3\n        /* \"#utility.yul\":2958:2967   */\n      dup6\n        /* \"#utility.yul\":2954:2976   */\n      add\n        /* \"#utility.yul\":2922:2986   */\n      tag_75\n      jump\t// in\n    tag_125:\n        /* \"#utility.yul\":2912:2986   */\n      swap2\n      pop\n        /* \"#utility.yul\":2868:2996   */\n      pop\n        /* \"#utility.yul\":2652:3003   */\n      swap3\n      swap2\n      pop\n      pop\n      jump\t// out\n        /* \"#utility.yul\":3009:3127   */\n    tag_76:\n        /* \"#utility.yul\":3080:3102   */\n      tag_127\n        /* \"#utility.yul\":3096:3101   */\n      dup2\n        /* \"#utility.yul\":3080:3102   */\n      tag_65\n      jump\t// in\n    tag_127:\n        /* \"#utility.yul\":3073:3078   */\n      dup2\n        /* \"#utility.yul\":3070:3103   */\n      eq\n        /* \"#utility.yul\":3060:3121   */\n      tag_128\n      jumpi\n        /* \"#utility.yul\":3117:3118   */\n      0x00\n        /* \"#utility.yul\":3114:3115   */\n      dup1\n        /* \"#utility.yul\":3107:3119   */\n      revert\n        /* \"#utility.yul\":3060:3121   */\n    tag_128:\n        /* \"#utility.yul\":3009:3127   */\n      pop\n      jump\t// out\n        /* \"#utility.yul\":3133:3272   */\n    tag_77:\n        /* \"#utility.yul\":3188:3193   */\n      0x00\n        /* \"#utility.yul\":3219:3225   */\n      dup2\n        /* \"#utility.yul\":3213:3226   */\n      mload\n        /* \"#utility.yul\":3204:3226   */\n      swap1\n      pop\n        /* \"#utility.yul\":3235:3266   */\n      tag_130\n        /* \"#utility.yul\":3260:3265   */\n      dup2\n        /* \"#utility.yul\":3235:3266   */\n      tag_76\n      jump\t// in\n    tag_130:\n        /* \"#utility.yul\":3133:3272   */\n      swap3\n      swap2\n      pop\n      pop\n      jump\t// out\n        /* \"#utility.yul\":3278:3625   */\n    tag_39:\n        /* \"#utility.yul\":3346:3352   */\n      0x00\n        /* \"#utility.yul\":3395:3397   */\n      0x20\n        /* \"#utility.yul\":3383:3392   */\n      dup3\n        /* \"#utility.yul\":3374:3381   */\n      dup5\n        /* \"#utility.yul\":3370:3393   */\n      sub\n        /* \"#utility.yul\":3366:3398   */\n      slt\n        /* \"#utility.yul\":3363:3482   */\n      iszero\n      tag_132\n      jumpi\n        /* \"#utility.yul\":3401:3480   */\n      tag_133\n      tag_68\n      jump\t// in\n    tag_133:\n        /* \"#utility.yul\":3363:3482   */\n    tag_132:\n        /* \"#utility.yul\":3521:3522   */\n      0x00\n        /* \"#utility.yul\":3546:3608   */\n      tag_134\n        /* \"#utility.yul\":3600:3607   */\n      dup5\n        /* \"#utility.yul\":3591:3597   */\n      dup3\n        /* \"#utility.yul\":3580:3589   */\n      dup6\n        /* \"#utility.yul\":3576:3598   */\n      add\n        /* \"#utility.yul\":3546:3608   */\n      tag_77\n      jump\t// in\n    tag_134:\n        /* \"#utility.yul\":3536:3608   */\n      swap2\n      pop\n        /* \"#utility.yul\":3492:3618   */\n      pop\n        /* \"#utility.yul\":3278:3625   */\n      swap3\n      swap2\n      pop\n      pop\n      jump\t// out\n        /* \"#utility.yul\":3631:3811   */\n    tag_78:\n        /* \"#utility.yul\":3679:3756   */\n      0x4e487b7100000000000000000000000000000000000000000000000000000000\n        /* \"#utility.yul\":3676:3677   */\n      0x00\n        /* \"#utility.yul\":3669:3757   */\n      mstore\n        /* \"#utility.yul\":3776:3780   */\n      0x11\n        /* \"#utility.yul\":3773:3774   */\n      0x04\n        /* \"#utility.yul\":3766:3781   */\n      mstore\n        /* \"#utility.yul\":3800:3804   */\n      0x24\n        /* \"#utility.yul\":3797:3798   */\n      0x00\n        /* \"#utility.yul\":3790:3805   */\n      revert\n        /* \"#utility.yul\":3817:4227   */\n    tag_43:\n        /* \"#utility.yul\":3857:3864   */\n      0x00\n        /* \"#utility.yul\":3880:3900   */\n      tag_137\n        /* \"#utility.yul\":3898:3899   */\n      dup3\n        /* \"#utility.yul\":3880:3900   */\n      tag_63\n      jump\t// in\n    tag_137:\n        /* \"#utility.yul\":3875:3900   */\n      swap2\n      pop\n        /* \"#utility.yul\":3914:3934   */\n      tag_138\n        /* \"#utility.yul\":3932:3933   */\n      dup4\n        /* \"#utility.yul\":3914:3934   */\n      tag_63\n      jump\t// in\n    tag_138:\n        /* \"#utility.yul\":3909:3934   */\n      swap3\n      pop\n        /* \"#utility.yul\":3969:3970   */\n      dup3\n        /* \"#utility.yul\":3966:3967   */\n      dup3\n        /* \"#utility.yul\":3962:3971   */\n      mul\n        /* \"#utility.yul\":3991:4021   */\n      tag_139\n        /* \"#utility.yul\":4009:4020   */\n      dup2\n        /* \"#utility.yul\":3991:4021   */\n      tag_63\n      jump\t// in\n    tag_139:\n        /* \"#utility.yul\":3980:4021   */\n      swap2\n      pop\n        /* \"#utility.yul\":4170:4171   */\n      dup3\n        /* \"#utility.yul\":4161:4168   */\n      dup3\n        /* \"#utility.yul\":4157:4172   */\n      div\n        /* \"#utility.yul\":4154:4155   */\n      dup5\n        /* \"#utility.yul\":4151:4173   */\n      eq\n        /* \"#utility.yul\":4131:4132   */\n      dup4\n        /* \"#utility.yul\":4124:4133   */\n      iszero\n        /* \"#utility.yul\":4104:4187   */\n      or\n        /* \"#utility.yul\":4081:4220   */\n      tag_140\n      jumpi\n        /* \"#utility.yul\":4200:4218   */\n      tag_141\n      tag_78\n      jump\t// in\n    tag_141:\n        /* \"#utility.yul\":4081:4220   */\n    tag_140:\n        /* \"#utility.yul\":3865:4227   */\n      pop\n        /* \"#utility.yul\":3817:4227   */\n      swap3\n      swap2\n      pop\n      pop\n      jump\t// out\n        /* \"#utility.yul\":4233:4413   */\n    tag_79:\n        /* \"#utility.yul\":4281:4358   */\n      0x4e487b7100000000000000000000000000000000000000000000000000000000\n        /* \"#utility.yul\":4278:4279   */\n      0x00\n        /* \"#utility.yul\":4271:4359   */\n      mstore\n        /* \"#utility.yul\":4378:4382   */\n      0x12\n        /* \"#utility.yul\":4375:4376   */\n      0x04\n        /* \"#utility.yul\":4368:4383   */\n      mstore\n        /* \"#utility.yul\":4402:4406   */\n      0x24\n        /* \"#utility.yul\":4399:4400   */\n      0x00\n        /* \"#utility.yul\":4392:4407   */\n      revert\n        /* \"#utility.yul\":4419:4604   */\n    tag_45:\n        /* \"#utility.yul\":4459:4460   */\n      0x00\n        /* \"#utility.yul\":4476:4496   */\n      tag_144\n        /* \"#utility.yul\":4494:4495   */\n      dup3\n        /* \"#utility.yul\":4476:4496   */\n      tag_63\n      jump\t// in\n    tag_144:\n        /* \"#utility.yul\":4471:4496   */\n      swap2\n      pop\n        /* \"#utility.yul\":4510:4530   */\n      tag_145\n        /* \"#utility.yul\":4528:4529   */\n      dup4\n        /* \"#utility.yul\":4510:4530   */\n      tag_63\n      jump\t// in\n    tag_145:\n        /* \"#utility.yul\":4505:4530   */\n      swap3\n      pop\n        /* \"#utility.yul\":4549:4550   */\n      dup3\n        /* \"#utility.yul\":4539:4574   */\n      tag_146\n      jumpi\n        /* \"#utility.yul\":4554:4572   */\n      tag_147\n      tag_79\n      jump\t// in\n    tag_147:\n        /* \"#utility.yul\":4539:4574   */\n    tag_146:\n        /* \"#utility.yul\":4596:4597   */\n      dup3\n        /* \"#utility.yul\":4593:4594   */\n      dup3\n        /* \"#utility.yul\":4589:4598   */\n      div\n        /* \"#utility.yul\":4584:4598   */\n      swap1\n      pop\n        /* \"#utility.yul\":4419:4604   */\n      swap3\n      swap2\n      pop\n      pop\n      jump\t// out\n        /* \"#utility.yul\":4610:4715   */\n    tag_80:\n        /* \"#utility.yul\":4646:4653   */\n      0x00\n        /* \"#utility.yul\":4686:4708   */\n      0xffffffffffffffffffff\n        /* \"#utility.yul\":4679:4684   */\n      dup3\n        /* \"#utility.yul\":4675:4709   */\n      and\n        /* \"#utility.yul\":4664:4709   */\n      swap1\n      pop\n        /* \"#utility.yul\":4610:4715   */\n      swap2\n      swap1\n      pop\n      jump\t// out\n        /* \"#utility.yul\":4721:4841   */\n    tag_81:\n        /* \"#utility.yul\":4793:4816   */\n      tag_150\n        /* \"#utility.yul\":4810:4815   */\n      dup2\n        /* \"#utility.yul\":4793:4816   */\n      tag_80\n      jump\t// in\n    tag_150:\n        /* \"#utility.yul\":4786:4791   */\n      dup2\n        /* \"#utility.yul\":4783:4817   */\n      eq\n        /* \"#utility.yul\":4773:4835   */\n      tag_151\n      jumpi\n        /* \"#utility.yul\":4831:4832   */\n      0x00\n        /* \"#utility.yul\":4828:4829   */\n      dup1\n        /* \"#utility.yul\":4821:4833   */\n      revert\n        /* \"#utility.yul\":4773:4835   */\n    tag_151:\n        /* \"#utility.yul\":4721:4841   */\n      pop\n      jump\t// out\n        /* \"#utility.yul\":4847:4988   */\n    tag_82:\n        /* \"#utility.yul\":4903:4908   */\n      0x00\n        /* \"#utility.yul\":4934:4940   */\n      dup2\n        /* \"#utility.yul\":4928:4941   */\n      mload\n        /* \"#utility.yul\":4919:4941   */\n      swap1\n      pop\n        /* \"#utility.yul\":4950:4982   */\n      tag_153\n        /* \"#utility.yul\":4976:4981   */\n      dup2\n        /* \"#utility.yul\":4950:4982   */\n      tag_81\n      jump\t// in\n    tag_153:\n        /* \"#utility.yul\":4847:4988   */\n      swap3\n      swap2\n      pop\n      pop\n      jump\t// out\n        /* \"#utility.yul\":4994:5070   */\n    tag_83:\n        /* \"#utility.yul\":5030:5037   */\n      0x00\n        /* \"#utility.yul\":5059:5064   */\n      dup2\n        /* \"#utility.yul\":5048:5064   */\n      swap1\n      pop\n        /* \"#utility.yul\":4994:5070   */\n      swap2\n      swap1\n      pop\n      jump\t// out\n        /* \"#utility.yul\":5076:5196   */\n    tag_84:\n        /* \"#utility.yul\":5148:5171   */\n      tag_156\n        /* \"#utility.yul\":5165:5170   */\n      dup2\n        /* \"#utility.yul\":5148:5171   */\n      tag_83\n      jump\t// in\n    tag_156:\n        /* \"#utility.yul\":5141:5146   */\n      dup2\n        /* \"#utility.yul\":5138:5172   */\n      eq\n        /* \"#utility.yul\":5128:5190   */\n      tag_157\n      jumpi\n        /* \"#utility.yul\":5186:5187   */\n      0x00\n        /* \"#utility.yul\":5183:5184   */\n      dup1\n        /* \"#utility.yul\":5176:5188   */\n      revert\n        /* \"#utility.yul\":5128:5190   */\n    tag_157:\n        /* \"#utility.yul\":5076:5196   */\n      pop\n      jump\t// out\n        /* \"#utility.yul\":5202:5343   */\n    tag_85:\n        /* \"#utility.yul\":5258:5263   */\n      0x00\n        /* \"#utility.yul\":5289:5295   */\n      dup2\n        /* \"#utility.yul\":5283:5296   */\n      mload\n        /* \"#utility.yul\":5274:5296   */\n      swap1\n      pop\n        /* \"#utility.yul\":5305:5337   */\n      tag_159\n        /* \"#utility.yul\":5331:5336   */\n      dup2\n        /* \"#utility.yul\":5305:5337   */\n      tag_84\n      jump\t// in\n    tag_159:\n        /* \"#utility.yul\":5202:5343   */\n      swap3\n      swap2\n      pop\n      pop\n      jump\t// out\n        /* \"#utility.yul\":5349:6320   */\n    tag_50:\n        /* \"#utility.yul\":5452:5458   */\n      0x00\n        /* \"#utility.yul\":5460:5466   */\n      dup1\n        /* \"#utility.yul\":5468:5474   */\n      0x00\n        /* \"#utility.yul\":5476:5482   */\n      dup1\n        /* \"#utility.yul\":5484:5490   */\n      0x00\n        /* \"#utility.yul\":5533:5536   */\n      0xa0\n        /* \"#utility.yul\":5521:5530   */\n      dup7\n        /* \"#utility.yul\":5512:5519   */\n      dup9\n        /* \"#utility.yul\":5508:5531   */\n      sub\n        /* \"#utility.yul\":5504:5537   */\n      slt\n        /* \"#utility.yul\":5501:5621   */\n      iszero\n      tag_161\n      jumpi\n        /* \"#utility.yul\":5540:5619   */\n      tag_162\n      tag_68\n      jump\t// in\n    tag_162:\n        /* \"#utility.yul\":5501:5621   */\n    tag_161:\n        /* \"#utility.yul\":5660:5661   */\n      0x00\n        /* \"#utility.yul\":5685:5748   */\n      tag_163\n        /* \"#utility.yul\":5740:5747   */\n      dup9\n        /* \"#utility.yul\":5731:5737   */\n      dup3\n        /* \"#utility.yul\":5720:5729   */\n      dup10\n        /* \"#utility.yul\":5716:5738   */\n      add\n        /* \"#utility.yul\":5685:5748   */\n      tag_82\n      jump\t// in\n    tag_163:\n        /* \"#utility.yul\":5675:5748   */\n      swap6\n      pop\n        /* \"#utility.yul\":5631:5758   */\n      pop\n        /* \"#utility.yul\":5797:5799   */\n      0x20\n        /* \"#utility.yul\":5823:5886   */\n      tag_164\n        /* \"#utility.yul\":5878:5885   */\n      dup9\n        /* \"#utility.yul\":5869:5875   */\n      dup3\n        /* \"#utility.yul\":5858:5867   */\n      dup10\n        /* \"#utility.yul\":5854:5876   */\n      add\n        /* \"#utility.yul\":5823:5886   */\n      tag_85\n      jump\t// in\n    tag_164:\n        /* \"#utility.yul\":5813:5886   */\n      swap5\n      pop\n        /* \"#utility.yul\":5768:5896   */\n      pop\n        /* \"#utility.yul\":5935:5937   */\n      0x40\n        /* \"#utility.yul\":5961:6025   */\n      tag_165\n        /* \"#utility.yul\":6017:6024   */\n      dup9\n        /* \"#utility.yul\":6008:6014   */\n      dup3\n        /* \"#utility.yul\":5997:6006   */\n      dup10\n        /* \"#utility.yul\":5993:6015   */\n      add\n        /* \"#utility.yul\":5961:6025   */\n      tag_75\n      jump\t// in\n    tag_165:\n        /* \"#utility.yul\":5951:6025   */\n      swap4\n      pop\n        /* \"#utility.yul\":5906:6035   */\n      pop\n        /* \"#utility.yul\":6074:6076   */\n      0x60\n        /* \"#utility.yul\":6100:6164   */\n      tag_166\n        /* \"#utility.yul\":6156:6163   */\n      dup9\n        /* \"#utility.yul\":6147:6153   */\n      dup3\n        /* \"#utility.yul\":6136:6145   */\n      dup10\n        /* \"#utility.yul\":6132:6154   */\n      add\n        /* \"#utility.yul\":6100:6164   */\n      tag_75\n      jump\t// in\n    tag_166:\n        /* \"#utility.yul\":6090:6164   */\n      swap3\n      pop\n        /* \"#utility.yul\":6045:6174   */\n      pop\n        /* \"#utility.yul\":6213:6216   */\n      0x80\n        /* \"#utility.yul\":6240:6303   */\n      tag_167\n        /* \"#utility.yul\":6295:6302   */\n      dup9\n        /* \"#utility.yul\":6286:6292   */\n      dup3\n        /* \"#utility.yul\":6275:6284   */\n      dup10\n        /* \"#utility.yul\":6271:6293   */\n      add\n        /* \"#utility.yul\":6240:6303   */\n      tag_82\n      jump\t// in\n    tag_167:\n        /* \"#utility.yul\":6230:6303   */\n      swap2\n      pop\n        /* \"#utility.yul\":6184:6313   */\n      pop\n        /* \"#utility.yul\":5349:6320   */\n      swap3\n      swap6\n      pop\n      swap3\n      swap6\n      swap1\n      swap4\n      pop\n      jump\t// out\n        /* \"#utility.yul\":6326:6882   */\n    tag_52:\n        /* \"#utility.yul\":6365:6372   */\n      0x00\n        /* \"#utility.yul\":6388:6407   */\n      tag_169\n        /* \"#utility.yul\":6405:6406   */\n      dup3\n        /* \"#utility.yul\":6388:6407   */\n      tag_83\n      jump\t// in\n    tag_169:\n        /* \"#utility.yul\":6383:6407   */\n      swap2\n      pop\n        /* \"#utility.yul\":6421:6440   */\n      tag_170\n        /* \"#utility.yul\":6438:6439   */\n      dup4\n        /* \"#utility.yul\":6421:6440   */\n      tag_83\n      jump\t// in\n    tag_170:\n        /* \"#utility.yul\":6416:6440   */\n      swap3\n      pop\n        /* \"#utility.yul\":6475:6476   */\n      dup3\n        /* \"#utility.yul\":6472:6473   */\n      dup3\n        /* \"#utility.yul\":6468:6477   */\n      mul\n        /* \"#utility.yul\":6497:6526   */\n      tag_171\n        /* \"#utility.yul\":6514:6525   */\n      dup2\n        /* \"#utility.yul\":6497:6526   */\n      tag_83\n      jump\t// in\n    tag_171:\n        /* \"#utility.yul\":6486:6526   */\n      swap2\n      pop\n        /* \"#utility.yul\":6584:6650   */\n      0x8000000000000000000000000000000000000000000000000000000000000000\n        /* \"#utility.yul\":6581:6582   */\n      dup5\n        /* \"#utility.yul\":6578:6651   */\n      eq\n        /* \"#utility.yul\":6574:6575   */\n      0x00\n        /* \"#utility.yul\":6571:6572   */\n      dup5\n        /* \"#utility.yul\":6567:6576   */\n      slt\n        /* \"#utility.yul\":6563:6652   */\n      and\n        /* \"#utility.yul\":6560:6675   */\n      iszero\n      tag_172\n      jumpi\n        /* \"#utility.yul\":6655:6673   */\n      tag_173\n      tag_78\n      jump\t// in\n    tag_173:\n        /* \"#utility.yul\":6560:6675   */\n    tag_172:\n        /* \"#utility.yul\":6825:6826   */\n      dup3\n        /* \"#utility.yul\":6816:6823   */\n      dup3\n        /* \"#utility.yul\":6811:6827   */\n      sdiv\n        /* \"#utility.yul\":6808:6809   */\n      dup5\n        /* \"#utility.yul\":6805:6828   */\n      eq\n        /* \"#utility.yul\":6785:6786   */\n      dup4\n        /* \"#utility.yul\":6778:6787   */\n      iszero\n        /* \"#utility.yul\":6758:6842   */\n      or\n        /* \"#utility.yul\":6735:6875   */\n      tag_174\n      jumpi\n        /* \"#utility.yul\":6855:6873   */\n      tag_175\n      tag_78\n      jump\t// in\n    tag_175:\n        /* \"#utility.yul\":6735:6875   */\n    tag_174:\n        /* \"#utility.yul\":6373:6882   */\n      pop\n        /* \"#utility.yul\":6326:6882   */\n      swap3\n      swap2\n      pop\n      pop\n      jump\t// out\n        /* \"#utility.yul\":6888:7057   */\n    tag_86:\n        /* \"#utility.yul\":6972:6983   */\n      0x00\n        /* \"#utility.yul\":7006:7012   */\n      dup3\n        /* \"#utility.yul\":7001:7004   */\n      dup3\n        /* \"#utility.yul\":6994:7013   */\n      mstore\n        /* \"#utility.yul\":7046:7050   */\n      0x20\n        /* \"#utility.yul\":7041:7044   */\n      dup3\n        /* \"#utility.yul\":7037:7051   */\n      add\n        /* \"#utility.yul\":7022:7051   */\n      swap1\n      pop\n        /* \"#utility.yul\":6888:7057   */\n      swap3\n      swap2\n      pop\n      pop\n      jump\t// out\n        /* \"#utility.yul\":7063:7353   */\n    tag_87:\n        /* \"#utility.yul\":7203:7237   */\n      0x457468657220616d6f756e74206e6f742073756666696369656e742e506c6561\n        /* \"#utility.yul\":7199:7200   */\n      0x00\n        /* \"#utility.yul\":7191:7197   */\n      dup3\n        /* \"#utility.yul\":7187:7201   */\n      add\n        /* \"#utility.yul\":7180:7238   */\n      mstore\n        /* \"#utility.yul\":7272:7306   */\n      0x73652073656e642061746c6561737420243520776f727468206f662065746865\n        /* \"#utility.yul\":7267:7269   */\n      0x20\n        /* \"#utility.yul\":7259:7265   */\n      dup3\n        /* \"#utility.yul\":7255:7270   */\n      add\n        /* \"#utility.yul\":7248:7307   */\n      mstore\n        /* \"#utility.yul\":7341:7345   */\n      0x722e000000000000000000000000000000000000000000000000000000000000\n        /* \"#utility.yul\":7336:7338   */\n      0x40\n        /* \"#utility.yul\":7328:7334   */\n      dup3\n        /* \"#utility.yul\":7324:7339   */\n      add\n        /* \"#utility.yul\":7317:7346   */\n      mstore\n        /* \"#utility.yul\":7063:7353   */\n      pop\n      jump\t// out\n        /* \"#utility.yul\":7359:7725   */\n    tag_88:\n        /* \"#utility.yul\":7501:7504   */\n      0x00\n        /* \"#utility.yul\":7522:7589   */\n      tag_179\n        /* \"#utility.yul\":7586:7588   */\n      0x42\n        /* \"#utility.yul\":7581:7584   */\n      dup4\n        /* \"#utility.yul\":7522:7589   */\n      tag_86\n      jump\t// in\n    tag_179:\n        /* \"#utility.yul\":7515:7589   */\n      swap2\n      pop\n        /* \"#utility.yul\":7598:7691   */\n      tag_180\n        /* \"#utility.yul\":7687:7690   */\n      dup3\n        /* \"#utility.yul\":7598:7691   */\n      tag_87\n      jump\t// in\n    tag_180:\n        /* \"#utility.yul\":7716:7718   */\n      0x60\n        /* \"#utility.yul\":7711:7714   */\n      dup3\n        /* \"#utility.yul\":7707:7719   */\n      add\n        /* \"#utility.yul\":7700:7719   */\n      swap1\n      pop\n        /* \"#utility.yul\":7359:7725   */\n      swap2\n      swap1\n      pop\n      jump\t// out\n        /* \"#utility.yul\":7731:8150   */\n    tag_57:\n        /* \"#utility.yul\":7897:7901   */\n      0x00\n        /* \"#utility.yul\":7935:7937   */\n      0x20\n        /* \"#utility.yul\":7924:7933   */\n      dup3\n        /* \"#utility.yul\":7920:7938   */\n      add\n        /* \"#utility.yul\":7912:7938   */\n      swap1\n      pop\n        /* \"#utility.yul\":7984:7993   */\n      dup2\n        /* \"#utility.yul\":7978:7982   */\n      dup2\n        /* \"#utility.yul\":7974:7994   */\n      sub\n        /* \"#utility.yul\":7970:7971   */\n      0x00\n        /* \"#utility.yul\":7959:7968   */\n      dup4\n        /* \"#utility.yul\":7955:7972   */\n      add\n        /* \"#utility.yul\":7948:7995   */\n      mstore\n        /* \"#utility.yul\":8012:8143   */\n      tag_182\n        /* \"#utility.yul\":8138:8142   */\n      dup2\n        /* \"#utility.yul\":8012:8143   */\n      tag_88\n      jump\t// in\n    tag_182:\n        /* \"#utility.yul\":8004:8143   */\n      swap1\n      pop\n        /* \"#utility.yul\":7731:8150   */\n      swap2\n      swap1\n      pop\n      jump\t// out\n        /* \"#utility.yul\":8156:8347   */\n    tag_60:\n        /* \"#utility.yul\":8196:8199   */\n      0x00\n        /* \"#utility.yul\":8215:8235   */\n      tag_184\n        /* \"#utility.yul\":8233:8234   */\n      dup3\n        /* \"#utility.yul\":8215:8235   */\n      tag_63\n      jump\t// in\n    tag_184:\n        /* \"#utility.yul\":8210:8235   */\n      swap2\n      pop\n        /* \"#utility.yul\":8249:8269   */\n      tag_185\n        /* \"#utility.yul\":8267:8268   */\n      dup4\n        /* \"#utility.yul\":8249:8269   */\n      tag_63\n      jump\t// in\n    tag_185:\n        /* \"#utility.yul\":8244:8269   */\n      swap3\n      pop\n        /* \"#utility.yul\":8292:8293   */\n      dup3\n        /* \"#utility.yul\":8289:8290   */\n      dup3\n        /* \"#utility.yul\":8285:8294   */\n      add\n        /* \"#utility.yul\":8278:8294   */\n      swap1\n      pop\n        /* \"#utility.yul\":8313:8316   */\n      dup1\n        /* \"#utility.yul\":8310:8311   */\n      dup3\n        /* \"#utility.yul\":8307:8317   */\n      gt\n        /* \"#utility.yul\":8304:8340   */\n      iszero\n      tag_186\n      jumpi\n        /* \"#utility.yul\":8320:8338   */\n      tag_187\n      tag_78\n      jump\t// in\n    tag_187:\n        /* \"#utility.yul\":8304:8340   */\n    tag_186:\n        /* \"#utility.yul\":8156:8347   */\n      swap3\n      swap2\n      pop\n      pop\n      jump\t// out\n\n    auxdata: 0xa2646970667358221220988e7ace39eacf3f6aa291ed120a20c0bcb1944b89dc84a47c57fb9e89f46bcf64736f6c634300081a0033\n}\n",
				"bytecode": {
					"linkReferences": {},
					"object": "6080604052674563918244f400005f553480156019575f80fd5b50610980806100275f395ff3fe608060405260043610610049575f3560e01c80630d8e6e2c1461004d57806322f5c40c1461007857806398d5fdca146100b4578063b60d4288146100de578063dc0d3dff146100e8575b5f80fd5b348015610058575f80fd5b50610061610124565b60405161006f9291906104a4565b60405180910390f35b348015610083575f80fd5b5061009e600480360381019061009991906104f9565b610221565b6040516100ab9190610524565b60405180910390f35b3480156100bf575f80fd5b506100c8610259565b6040516100d59190610524565b60405180910390f35b6100e66102fe565b005b3480156100f3575f80fd5b5061010e600480360381019061010991906104f9565b610436565b60405161011b919061057c565b60405180910390f35b5f805f73694aa1769357215de4fac081bf1f309adc32530690508073ffffffffffffffffffffffffffffffffffffffff166354fd4d506040518163ffffffff1660e01b8152600401602060405180830381865afa158015610187573d5f803e3d5ffd5b505050506040513d601f19601f820116820180604052508101906101ab91906105a9565b8173ffffffffffffffffffffffffffffffffffffffff1663313ce5676040518163ffffffff1660e01b8152600401602060405180830381865afa1580156101f4573d5f803e3d5ffd5b505050506040513d601f19601f8201168201806040525081019061021891906105fe565b92509250509091565b5f8061022b610259565b90505f670de0b6b3a764000082856102439190610656565b61024d91906106c4565b90508092505050919050565b5f8073694aa1769357215de4fac081bf1f309adc32530690505f8173ffffffffffffffffffffffffffffffffffffffff1663feaf968c6040518163ffffffff1660e01b815260040160a060405180830381865afa1580156102bc573d5f803e3d5ffd5b505050506040513d601f19601f820116820180604052508101906102e09190610766565b5050509150506402540be400816102f791906107dd565b9250505090565b5f5461030934610221565b101561034a576040517f08c379a0000000000000000000000000000000000000000000000000000000008152600401610341906108f9565b60405180910390fd5b600133908060018154018082558091505060019003905f5260205f20015f9091909190916101000a81548173ffffffffffffffffffffffffffffffffffffffff021916908373ffffffffffffffffffffffffffffffffffffffff1602179055503460025f3373ffffffffffffffffffffffffffffffffffffffff1673ffffffffffffffffffffffffffffffffffffffff1681526020019081526020015f20546103f39190610917565b60025f3373ffffffffffffffffffffffffffffffffffffffff1673ffffffffffffffffffffffffffffffffffffffff1681526020019081526020015f2081905550565b60018181548110610445575f80fd5b905f5260205f20015f915054906101000a900473ffffffffffffffffffffffffffffffffffffffff1681565b5f819050919050565b61048381610471565b82525050565b5f60ff82169050919050565b61049e81610489565b82525050565b5f6040820190506104b75f83018561047a565b6104c46020830184610495565b9392505050565b5f80fd5b6104d881610471565b81146104e2575f80fd5b50565b5f813590506104f3816104cf565b92915050565b5f6020828403121561050e5761050d6104cb565b5b5f61051b848285016104e5565b91505092915050565b5f6020820190506105375f83018461047a565b92915050565b5f73ffffffffffffffffffffffffffffffffffffffff82169050919050565b5f6105668261053d565b9050919050565b6105768161055c565b82525050565b5f60208201905061058f5f83018461056d565b92915050565b5f815190506105a3816104cf565b92915050565b5f602082840312156105be576105bd6104cb565b5b5f6105cb84828501610595565b91505092915050565b6105dd81610489565b81146105e7575f80fd5b50565b5f815190506105f8816105d4565b92915050565b5f60208284031215610613576106126104cb565b5b5f610620848285016105ea565b91505092915050565b7f4e487b71000000000000000000000000000000000000000000000000000000005f52601160045260245ffd5b5f61066082610471565b915061066b83610471565b925082820261067981610471565b915082820484148315176106905761068f610629565b5b5092915050565b7f4e487b71000000000000000000000000000000000000000000000000000000005f52601260045260245ffd5b5f6106ce82610471565b91506106d983610471565b9250826106e9576106e8610697565b5b828204905092915050565b5f69ffffffffffffffffffff82169050919050565b610712816106f4565b811461071c575f80fd5b50565b5f8151905061072d81610709565b92915050565b5f819050919050565b61074581610733565b811461074f575f80fd5b50565b5f815190506107608161073c565b92915050565b5f805f805f60a0868803121561077f5761077e6104cb565b5b5f61078c8882890161071f565b955050602061079d88828901610752565b94505060406107ae88828901610595565b93505060606107bf88828901610595565b92505060806107d08882890161071f565b9150509295509295909350565b5f6107e782610733565b91506107f283610733565b925082820261080081610733565b91507f800000000000000000000000000000000000000000000000000000000000000084145f8412161561083757610836610629565b5b828205841483151761084c5761084b610629565b5b5092915050565b5f82825260208201905092915050565b7f457468657220616d6f756e74206e6f742073756666696369656e742e506c65615f8201527f73652073656e642061746c6561737420243520776f727468206f66206574686560208201527f722e000000000000000000000000000000000000000000000000000000000000604082015250565b5f6108e3604283610853565b91506108ee82610863565b606082019050919050565b5f6020820190508181035f830152610910816108d7565b9050919050565b5f61092182610471565b915061092c83610471565b925082820190508082111561094457610943610629565b5b9291505056fea2646970667358221220988e7ace39eacf3f6aa291ed120a20c0bcb1944b89dc84a47c57fb9e89f46bcf64736f6c634300081a0033",
					"opcodes": "PUSH1 0x80 PUSH1 0x40 MSTORE PUSH8 0x4563918244F40000 PUSH0 SSTORE CALLVALUE DUP1 ISZERO PUSH1 0x19 JUMPI PUSH0 DUP1 REVERT JUMPDEST POP PUSH2 0x980 DUP1 PUSH2 0x27 PUSH0 CODECOPY PUSH0 RETURN INVALID PUSH1 0x80 PUSH1 0x40 MSTORE PUSH1 0x4 CALLDATASIZE LT PUSH2 0x49 JUMPI PUSH0 CALLDATALOAD PUSH1 0xE0 SHR DUP1 PUSH4 0xD8E6E2C EQ PUSH2 0x4D JUMPI DUP1 PUSH4 0x22F5C40C EQ PUSH2 0x78 JUMPI DUP1 PUSH4 0x98D5FDCA EQ PUSH2 0xB4 JUMPI DUP1 PUSH4 0xB60D4288 EQ PUSH2 0xDE JUMPI DUP1 PUSH4 0xDC0D3DFF EQ PUSH2 0xE8 JUMPI JUMPDEST PUSH0 DUP1 REVERT JUMPDEST CALLVALUE DUP1 ISZERO PUSH2 0x58 JUMPI PUSH0 DUP1 REVERT JUMPDEST POP PUSH2 0x61 PUSH2 0x124 JUMP JUMPDEST PUSH1 0x40 MLOAD PUSH2 0x6F SWAP3 SWAP2 SWAP1 PUSH2 0x4A4 JUMP JUMPDEST PUSH1 0x40 MLOAD DUP1 SWAP2 SUB SWAP1 RETURN JUMPDEST CALLVALUE DUP1 ISZERO PUSH2 0x83 JUMPI PUSH0 DUP1 REVERT JUMPDEST POP PUSH2 0x9E PUSH1 0x4 DUP1 CALLDATASIZE SUB DUP2 ADD SWAP1 PUSH2 0x99 SWAP2 SWAP1 PUSH2 0x4F9 JUMP JUMPDEST PUSH2 0x221 JUMP JUMPDEST PUSH1 0x40 MLOAD PUSH2 0xAB SWAP2 SWAP1 PUSH2 0x524 JUMP JUMPDEST PUSH1 0x40 MLOAD DUP1 SWAP2 SUB SWAP1 RETURN JUMPDEST CALLVALUE DUP1 ISZERO PUSH2 0xBF JUMPI PUSH0 DUP1 REVERT JUMPDEST POP PUSH2 0xC8 PUSH2 0x259 JUMP JUMPDEST PUSH1 0x40 MLOAD PUSH2 0xD5 SWAP2 SWAP1 PUSH2 0x524 JUMP JUMPDEST PUSH1 0x40 MLOAD DUP1 SWAP2 SUB SWAP1 RETURN JUMPDEST PUSH2 0xE6 PUSH2 0x2FE JUMP JUMPDEST STOP JUMPDEST CALLVALUE DUP1 ISZERO PUSH2 0xF3 JUMPI PUSH0 DUP1 REVERT JUMPDEST POP PUSH2 0x10E PUSH1 0x4 DUP1 CALLDATASIZE SUB DUP2 ADD SWAP1 PUSH2 0x109 SWAP2 SWAP1 PUSH2 0x4F9 JUMP JUMPDEST PUSH2 0x436 JUMP JUMPDEST PUSH1 0x40 MLOAD PUSH2 0x11B SWAP2 SWAP1 PUSH2 0x57C JUMP JUMPDEST PUSH1 0x40 MLOAD DUP1 SWAP2 SUB SWAP1 RETURN JUMPDEST PUSH0 DUP1 PUSH0 PUSH20 0x694AA1769357215DE4FAC081BF1F309ADC325306 SWAP1 POP DUP1 PUSH20 0xFFFFFFFFFFFFFFFFFFFFFFFFFFFFFFFFFFFFFFFF AND PUSH4 0x54FD4D50 PUSH1 0x40 MLOAD DUP2 PUSH4 0xFFFFFFFF AND PUSH1 0xE0 SHL DUP2 MSTORE PUSH1 0x4 ADD PUSH1 0x20 PUSH1 0x40 MLOAD DUP1 DUP4 SUB DUP2 DUP7 GAS STATICCALL ISZERO DUP1 ISZERO PUSH2 0x187 JUMPI RETURNDATASIZE PUSH0 DUP1 RETURNDATACOPY RETURNDATASIZE PUSH0 REVERT JUMPDEST POP POP POP POP PUSH1 0x40 MLOAD RETURNDATASIZE PUSH1 0x1F NOT PUSH1 0x1F DUP3 ADD AND DUP3 ADD DUP1 PUSH1 0x40 MSTORE POP DUP2 ADD SWAP1 PUSH2 0x1AB SWAP2 SWAP1 PUSH2 0x5A9 JUMP JUMPDEST DUP2 PUSH20 0xFFFFFFFFFFFFFFFFFFFFFFFFFFFFFFFFFFFFFFFF AND PUSH4 0x313CE567 PUSH1 0x40 MLOAD DUP2 PUSH4 0xFFFFFFFF AND PUSH1 0xE0 SHL DUP2 MSTORE PUSH1 0x4 ADD PUSH1 0x20 PUSH1 0x40 MLOAD DUP1 DUP4 SUB DUP2 DUP7 GAS STATICCALL ISZERO DUP1 ISZERO PUSH2 0x1F4 JUMPI RETURNDATASIZE PUSH0 DUP1 RETURNDATACOPY RETURNDATASIZE PUSH0 REVERT JUMPDEST POP POP POP POP PUSH1 0x40 MLOAD RETURNDATASIZE PUSH1 0x1F NOT PUSH1 0x1F DUP3 ADD AND DUP3 ADD DUP1 PUSH1 0x40 MSTORE POP DUP2 ADD SWAP1 PUSH2 0x218 SWAP2 SWAP1 PUSH2 0x5FE JUMP JUMPDEST SWAP3 POP SWAP3 POP POP SWAP1 SWAP2 JUMP JUMPDEST PUSH0 DUP1 PUSH2 0x22B PUSH2 0x259 JUMP JUMPDEST SWAP1 POP PUSH0 PUSH8 0xDE0B6B3A7640000 DUP3 DUP6 PUSH2 0x243 SWAP2 SWAP1 PUSH2 0x656 JUMP JUMPDEST PUSH2 0x24D SWAP2 SWAP1 PUSH2 0x6C4 JUMP JUMPDEST SWAP1 POP DUP1 SWAP3 POP POP POP SWAP2 SWAP1 POP JUMP JUMPDEST PUSH0 DUP1 PUSH20 0x694AA1769357215DE4FAC081BF1F309ADC325306 SWAP1 POP PUSH0 DUP2 PUSH20 0xFFFFFFFFFFFFFFFFFFFFFFFFFFFFFFFFFFFFFFFF AND PUSH4 0xFEAF968C PUSH1 0x40 MLOAD DUP2 PUSH4 0xFFFFFFFF AND PUSH1 0xE0 SHL DUP2 MSTORE PUSH1 0x4 ADD PUSH1 0xA0 PUSH1 0x40 MLOAD DUP1 DUP4 SUB DUP2 DUP7 GAS STATICCALL ISZERO DUP1 ISZERO PUSH2 0x2BC JUMPI RETURNDATASIZE PUSH0 DUP1 RETURNDATACOPY RETURNDATASIZE PUSH0 REVERT JUMPDEST POP POP POP POP PUSH1 0x40 MLOAD RETURNDATASIZE PUSH1 0x1F NOT PUSH1 0x1F DUP3 ADD AND DUP3 ADD DUP1 PUSH1 0x40 MSTORE POP DUP2 ADD SWAP1 PUSH2 0x2E0 SWAP2 SWAP1 PUSH2 0x766 JUMP JUMPDEST POP POP POP SWAP2 POP POP PUSH5 0x2540BE400 DUP2 PUSH2 0x2F7 SWAP2 SWAP1 PUSH2 0x7DD JUMP JUMPDEST SWAP3 POP POP POP SWAP1 JUMP JUMPDEST PUSH0 SLOAD PUSH2 0x309 CALLVALUE PUSH2 0x221 JUMP JUMPDEST LT ISZERO PUSH2 0x34A JUMPI PUSH1 0x40 MLOAD PUSH32 0x8C379A000000000000000000000000000000000000000000000000000000000 DUP2 MSTORE PUSH1 0x4 ADD PUSH2 0x341 SWAP1 PUSH2 0x8F9 JUMP JUMPDEST PUSH1 0x40 MLOAD DUP1 SWAP2 SUB SWAP1 REVERT JUMPDEST PUSH1 0x1 CALLER SWAP1 DUP1 PUSH1 0x1 DUP2 SLOAD ADD DUP1 DUP3 SSTORE DUP1 SWAP2 POP POP PUSH1 0x1 SWAP1 SUB SWAP1 PUSH0 MSTORE PUSH1 0x20 PUSH0 KECCAK256 ADD PUSH0 SWAP1 SWAP2 SWAP1 SWAP2 SWAP1 SWAP2 PUSH2 0x100 EXP DUP2 SLOAD DUP2 PUSH20 0xFFFFFFFFFFFFFFFFFFFFFFFFFFFFFFFFFFFFFFFF MUL NOT AND SWAP1 DUP4 PUSH20 0xFFFFFFFFFFFFFFFFFFFFFFFFFFFFFFFFFFFFFFFF AND MUL OR SWAP1 SSTORE POP CALLVALUE PUSH1 0x2 PUSH0 CALLER PUSH20 0xFFFFFFFFFFFFFFFFFFFFFFFFFFFFFFFFFFFFFFFF AND PUSH20 0xFFFFFFFFFFFFFFFFFFFFFFFFFFFFFFFFFFFFFFFF AND DUP2 MSTORE PUSH1 0x20 ADD SWAP1 DUP2 MSTORE PUSH1 0x20 ADD PUSH0 KECCAK256 SLOAD PUSH2 0x3F3 SWAP2 SWAP1 PUSH2 0x917 JUMP JUMPDEST PUSH1 0x2 PUSH0 CALLER PUSH20 0xFFFFFFFFFFFFFFFFFFFFFFFFFFFFFFFFFFFFFFFF AND PUSH20 0xFFFFFFFFFFFFFFFFFFFFFFFFFFFFFFFFFFFFFFFF AND DUP2 MSTORE PUSH1 0x20 ADD SWAP1 DUP2 MSTORE PUSH1 0x20 ADD PUSH0 KECCAK256 DUP2 SWAP1 SSTORE POP JUMP JUMPDEST PUSH1 0x1 DUP2 DUP2 SLOAD DUP2 LT PUSH2 0x445 JUMPI PUSH0 DUP1 REVERT JUMPDEST SWAP1 PUSH0 MSTORE PUSH1 0x20 PUSH0 KECCAK256 ADD PUSH0 SWAP2 POP SLOAD SWAP1 PUSH2 0x100 EXP SWAP1 DIV PUSH20 0xFFFFFFFFFFFFFFFFFFFFFFFFFFFFFFFFFFFFFFFF AND DUP2 JUMP JUMPDEST PUSH0 DUP2 SWAP1 POP SWAP2 SWAP1 POP JUMP JUMPDEST PUSH2 0x483 DUP2 PUSH2 0x471 JUMP JUMPDEST DUP3 MSTORE POP POP JUMP JUMPDEST PUSH0 PUSH1 0xFF DUP3 AND SWAP1 POP SWAP2 SWAP1 POP JUMP JUMPDEST PUSH2 0x49E DUP2 PUSH2 0x489 JUMP JUMPDEST DUP3 MSTORE POP POP JUMP JUMPDEST PUSH0 PUSH1 0x40 DUP3 ADD SWAP1 POP PUSH2 0x4B7 PUSH0 DUP4 ADD DUP6 PUSH2 0x47A JUMP JUMPDEST PUSH2 0x4C4 PUSH1 0x20 DUP4 ADD DUP5 PUSH2 0x495 JUMP JUMPDEST SWAP4 SWAP3 POP POP POP JUMP JUMPDEST PUSH0 DUP1 REVERT JUMPDEST PUSH2 0x4D8 DUP2 PUSH2 0x471 JUMP JUMPDEST DUP2 EQ PUSH2 0x4E2 JUMPI PUSH0 DUP1 REVERT JUMPDEST POP JUMP JUMPDEST PUSH0 DUP2 CALLDATALOAD SWAP1 POP PUSH2 0x4F3 DUP2 PUSH2 0x4CF JUMP JUMPDEST SWAP3 SWAP2 POP POP JUMP JUMPDEST PUSH0 PUSH1 0x20 DUP3 DUP5 SUB SLT ISZERO PUSH2 0x50E JUMPI PUSH2 0x50D PUSH2 0x4CB JUMP JUMPDEST JUMPDEST PUSH0 PUSH2 0x51B DUP5 DUP3 DUP6 ADD PUSH2 0x4E5 JUMP JUMPDEST SWAP2 POP POP SWAP3 SWAP2 POP POP JUMP JUMPDEST PUSH0 PUSH1 0x20 DUP3 ADD SWAP1 POP PUSH2 0x537 PUSH0 DUP4 ADD DUP5 PUSH2 0x47A JUMP JUMPDEST SWAP3 SWAP2 POP POP JUMP JUMPDEST PUSH0 PUSH20 0xFFFFFFFFFFFFFFFFFFFFFFFFFFFFFFFFFFFFFFFF DUP3 AND SWAP1 POP SWAP2 SWAP1 POP JUMP JUMPDEST PUSH0 PUSH2 0x566 DUP3 PUSH2 0x53D JUMP JUMPDEST SWAP1 POP SWAP2 SWAP1 POP JUMP JUMPDEST PUSH2 0x576 DUP2 PUSH2 0x55C JUMP JUMPDEST DUP3 MSTORE POP POP JUMP JUMPDEST PUSH0 PUSH1 0x20 DUP3 ADD SWAP1 POP PUSH2 0x58F PUSH0 DUP4 ADD DUP5 PUSH2 0x56D JUMP JUMPDEST SWAP3 SWAP2 POP POP JUMP JUMPDEST PUSH0 DUP2 MLOAD SWAP1 POP PUSH2 0x5A3 DUP2 PUSH2 0x4CF JUMP JUMPDEST SWAP3 SWAP2 POP POP JUMP JUMPDEST PUSH0 PUSH1 0x20 DUP3 DUP5 SUB SLT ISZERO PUSH2 0x5BE JUMPI PUSH2 0x5BD PUSH2 0x4CB JUMP JUMPDEST JUMPDEST PUSH0 PUSH2 0x5CB DUP5 DUP3 DUP6 ADD PUSH2 0x595 JUMP JUMPDEST SWAP2 POP POP SWAP3 SWAP2 POP POP JUMP JUMPDEST PUSH2 0x5DD DUP2 PUSH2 0x489 JUMP JUMPDEST DUP2 EQ PUSH2 0x5E7 JUMPI PUSH0 DUP1 REVERT JUMPDEST POP JUMP JUMPDEST PUSH0 DUP2 MLOAD SWAP1 POP PUSH2 0x5F8 DUP2 PUSH2 0x5D4 JUMP JUMPDEST SWAP3 SWAP2 POP POP JUMP JUMPDEST PUSH0 PUSH1 0x20 DUP3 DUP5 SUB SLT ISZERO PUSH2 0x613 JUMPI PUSH2 0x612 PUSH2 0x4CB JUMP JUMPDEST JUMPDEST PUSH0 PUSH2 0x620 DUP5 DUP3 DUP6 ADD PUSH2 0x5EA JUMP JUMPDEST SWAP2 POP POP SWAP3 SWAP2 POP POP JUMP JUMPDEST PUSH32 0x4E487B7100000000000000000000000000000000000000000000000000000000 PUSH0 MSTORE PUSH1 0x11 PUSH1 0x4 MSTORE PUSH1 0x24 PUSH0 REVERT JUMPDEST PUSH0 PUSH2 0x660 DUP3 PUSH2 0x471 JUMP JUMPDEST SWAP2 POP PUSH2 0x66B DUP4 PUSH2 0x471 JUMP JUMPDEST SWAP3 POP DUP3 DUP3 MUL PUSH2 0x679 DUP2 PUSH2 0x471 JUMP JUMPDEST SWAP2 POP DUP3 DUP3 DIV DUP5 EQ DUP4 ISZERO OR PUSH2 0x690 JUMPI PUSH2 0x68F PUSH2 0x629 JUMP JUMPDEST JUMPDEST POP SWAP3 SWAP2 POP POP JUMP JUMPDEST PUSH32 0x4E487B7100000000000000000000000000000000000000000000000000000000 PUSH0 MSTORE PUSH1 0x12 PUSH1 0x4 MSTORE PUSH1 0x24 PUSH0 REVERT JUMPDEST PUSH0 PUSH2 0x6CE DUP3 PUSH2 0x471 JUMP JUMPDEST SWAP2 POP PUSH2 0x6D9 DUP4 PUSH2 0x471 JUMP JUMPDEST SWAP3 POP DUP3 PUSH2 0x6E9 JUMPI PUSH2 0x6E8 PUSH2 0x697 JUMP JUMPDEST JUMPDEST DUP3 DUP3 DIV SWAP1 POP SWAP3 SWAP2 POP POP JUMP JUMPDEST PUSH0 PUSH10 0xFFFFFFFFFFFFFFFFFFFF DUP3 AND SWAP1 POP SWAP2 SWAP1 POP JUMP JUMPDEST PUSH2 0x712 DUP2 PUSH2 0x6F4 JUMP JUMPDEST DUP2 EQ PUSH2 0x71C JUMPI PUSH0 DUP1 REVERT JUMPDEST POP JUMP JUMPDEST PUSH0 DUP2 MLOAD SWAP1 POP PUSH2 0x72D DUP2 PUSH2 0x709 JUMP JUMPDEST SWAP3 SWAP2 POP POP JUMP JUMPDEST PUSH0 DUP2 SWAP1 POP SWAP2 SWAP1 POP JUMP JUMPDEST PUSH2 0x745 DUP2 PUSH2 0x733 JUMP JUMPDEST DUP2 EQ PUSH2 0x74F JUMPI PUSH0 DUP1 REVERT JUMPDEST POP JUMP JUMPDEST PUSH0 DUP2 MLOAD SWAP1 POP PUSH2 0x760 DUP2 PUSH2 0x73C JUMP JUMPDEST SWAP3 SWAP2 POP POP JUMP JUMPDEST PUSH0 DUP1 PUSH0 DUP1 PUSH0 PUSH1 0xA0 DUP7 DUP9 SUB SLT ISZERO PUSH2 0x77F JUMPI PUSH2 0x77E PUSH2 0x4CB JUMP JUMPDEST JUMPDEST PUSH0 PUSH2 0x78C DUP9 DUP3 DUP10 ADD PUSH2 0x71F JUMP JUMPDEST SWAP6 POP POP PUSH1 0x20 PUSH2 0x79D DUP9 DUP3 DUP10 ADD PUSH2 0x752 JUMP JUMPDEST SWAP5 POP POP PUSH1 0x40 PUSH2 0x7AE DUP9 DUP3 DUP10 ADD PUSH2 0x595 JUMP JUMPDEST SWAP4 POP POP PUSH1 0x60 PUSH2 0x7BF DUP9 DUP3 DUP10 ADD PUSH2 0x595 JUMP JUMPDEST SWAP3 POP POP PUSH1 0x80 PUSH2 0x7D0 DUP9 DUP3 DUP10 ADD PUSH2 0x71F JUMP JUMPDEST SWAP2 POP POP SWAP3 SWAP6 POP SWAP3 SWAP6 SWAP1 SWAP4 POP JUMP JUMPDEST PUSH0 PUSH2 0x7E7 DUP3 PUSH2 0x733 JUMP JUMPDEST SWAP2 POP PUSH2 0x7F2 DUP4 PUSH2 0x733 JUMP JUMPDEST SWAP3 POP DUP3 DUP3 MUL PUSH2 0x800 DUP2 PUSH2 0x733 JUMP JUMPDEST SWAP2 POP PUSH32 0x8000000000000000000000000000000000000000000000000000000000000000 DUP5 EQ PUSH0 DUP5 SLT AND ISZERO PUSH2 0x837 JUMPI PUSH2 0x836 PUSH2 0x629 JUMP JUMPDEST JUMPDEST DUP3 DUP3 SDIV DUP5 EQ DUP4 ISZERO OR PUSH2 0x84C JUMPI PUSH2 0x84B PUSH2 0x629 JUMP JUMPDEST JUMPDEST POP SWAP3 SWAP2 POP POP JUMP JUMPDEST PUSH0 DUP3 DUP3 MSTORE PUSH1 0x20 DUP3 ADD SWAP1 POP SWAP3 SWAP2 POP POP JUMP JUMPDEST PUSH32 0x457468657220616D6F756E74206E6F742073756666696369656E742E506C6561 PUSH0 DUP3 ADD MSTORE PUSH32 0x73652073656E642061746C6561737420243520776F727468206F662065746865 PUSH1 0x20 DUP3 ADD MSTORE PUSH32 0x722E000000000000000000000000000000000000000000000000000000000000 PUSH1 0x40 DUP3 ADD MSTORE POP JUMP JUMPDEST PUSH0 PUSH2 0x8E3 PUSH1 0x42 DUP4 PUSH2 0x853 JUMP JUMPDEST SWAP2 POP PUSH2 0x8EE DUP3 PUSH2 0x863 JUMP JUMPDEST PUSH1 0x60 DUP3 ADD SWAP1 POP SWAP2 SWAP1 POP JUMP JUMPDEST PUSH0 PUSH1 0x20 DUP3 ADD SWAP1 POP DUP2 DUP2 SUB PUSH0 DUP4 ADD MSTORE PUSH2 0x910 DUP2 PUSH2 0x8D7 JUMP JUMPDEST SWAP1 POP SWAP2 SWAP1 POP JUMP JUMPDEST PUSH0 PUSH2 0x921 DUP3 PUSH2 0x471 JUMP JUMPDEST SWAP2 POP PUSH2 0x92C DUP4 PUSH2 0x471 JUMP JUMPDEST SWAP3 POP DUP3 DUP3 ADD SWAP1 POP DUP1 DUP3 GT ISZERO PUSH2 0x944 JUMPI PUSH2 0x943 PUSH2 0x629 JUMP JUMPDEST JUMPDEST SWAP3 SWAP2 POP POP JUMP INVALID LOG2 PUSH5 0x6970667358 0x22 SLT KECCAK256 SWAP9 DUP15 PUSH27 0xCE39EACF3F6AA291ED120A20C0BCB1944B89DC84A47C57FB9E89F4 PUSH12 0xCF64736F6C634300081A0033 "
				},
				"gasEstimates": {
					"creation": {
						"codeDepositCost": "486400",
						"executionCost": "22621",
						"totalCost": "509021"
					},
					"external": {
						"convertion(uint256)": "infinite",
						"fund()": "infinite",
						"funders(uint256)": "5010",
						"getPrice()": "infinite",
						"getVersion()": "infinite"
					}
				},
				"methodIdentifiers": {
					"convertion(uint256)": "22f5c40c",
					"fund()": "b60d4288",
					"funders(uint256)": "dc0d3dff",
					"getPrice()": "98d5fdca",
					"getVersion()": "0d8e6e2c"
				}
			},
			"storageLayout": {
				"storage": [
					{
						"astId": 54,
						"contract": "contracts/FundMe.sol:FundMe",
						"label": "minUsd",
						"offset": 0,
						"slot": "0",
						"type": "t_uint256"
					},
					{
						"astId": 57,
						"contract": "contracts/FundMe.sol:FundMe",
						"label": "funders",
						"offset": 0,
						"slot": "1",
						"type": "t_array(t_address)dyn_storage"
					},
					{
						"astId": 61,
						"contract": "contracts/FundMe.sol:FundMe",
						"label": "funderToAmountMap",
						"offset": 0,
						"slot": "2",
						"type": "t_mapping(t_address,t_uint256)"
					}
				],
				"types": {
					"t_address": {
						"encoding": "inplace",
						"label": "address",
						"numberOfBytes": "20"
					},
					"t_array(t_address)dyn_storage": {
						"base": "t_address",
						"encoding": "dynamic_array",
						"label": "address[]",
						"numberOfBytes": "32"
					},
					"t_mapping(t_address,t_uint256)": {
						"encoding": "mapping",
						"key": "t_address",
						"label": "mapping(address => uint256)",
						"numberOfBytes": "32",
						"value": "t_uint256"
					},
					"t_uint256": {
						"encoding": "inplace",
						"label": "uint256",
						"numberOfBytes": "32"
					}
				}
			},
			"userdoc": {
				"kind": "user",
				"methods": {},
				"version": 1
			}
		}
	}
}